:100000000C942D010C945E010C945E010C945E0125
:100010000C944E090C945E010C945E010C945E01EC
:100020000C945E010C945E010C945E010C945E01D4
:100030000C945E010C945E010C945E010C945E01C4
:100040000C945E010C945E010C945E010C945E01B4
:100050000C945E010C945E010C945E010C942007DC
:100060000C945E010C94F4070C94CA070C945E0186
:100070000C945E010C945E010C945E010C945E0184
:100080000C945E010C945E010C945E010C945E0174
:100090000C945E010C945E010C945E010C942A0891
:1000A0000C945E010C945E010C945E010C945E0154
:1000B0000C945E010C945E010C945E010C945E0144
:1000C0000C945E010C945E010C945E010C949407F8
:1000D0000C946A070C945E010C945E010C945E0112
:1000E0000C945E010C9413020C94C6010C944F0204
:1000F0000C94E6010C94DC010C940A040C94CA01E3
:100100000C9490010C94B3020C94D8010C94DD0370
:100110000C9420050C94D5090C9495010C94C30300
:100120000C9440020C94BC010C94B6010C94110286
:100130000C9463020C94C0010C94AB010C94B301B9
:100140000C94B4030C9471020C94B3030C9400034C
:100150000C9412020C94AF010C94E2010C94A701D0
:100160000C94D6030C94D4010C94CE010000220010
:10017000250028002B002E00310034000201000071
:10018000050108010B010505050507050808080814
:10019000020202020A0A080804040404010101011F
:1001A000010101010303030303030303040707071A
:1001B0000C0C0C0C0C0C0C0C0202020206060606BF
:1001C000060606060B0B0B0B0B0B0B0B010210208C
:1001D000200808102040102040800201020108047D
:1001E0000201010204081020408080402010080411
:1001F000020180040201804020100804020108046A
:1002000002010102040810204080010204081020AD
:10021000408000000A0B02090C0D0E0807030401C0
:1002200000000000000000000000000000000000CE
:10023000000000000000000000000000000012119B
:10024000100000000000000000000000000000009E
:100250000000000000000000D50911241FBECFEFF0
:10026000D1E2DEBFCDBF00E00CBF12E0A0E0B2E003
:10027000ECECFBE100E00BBF02C007900D92A63A48
:10028000B107D9F724E0A6EAB2E001C01D92AA3B6B
:10029000B207E1F711E0CDE2D1E000E006C021971E
:1002A0000109802FFE010E94A30CCC32D10780E00F
:1002B0000807A9F70E94340A0C94E40D0C9400007E
:1002C000282F30E0F901EE5EFD4F9491F901E453DF
:1002D000FE4F44912A573E4FF9012491222309F4FD
:1002E00035C0992311F191509231F8F4E92FF0E0E3
:1002F0008827E258FE4F8F4F0C94A30CAF01B30137
:100300009001A701AB019501B601BC01C001C60176
:10031000CA01CE01D401D8019501DC01E201E60158
:10032000809180008F7780938000E22FF0E0EE0FC5
:10033000FF1FE459FE4FA591B4918FB7F894EC914B
:10034000611148C040954E234C938FBF0895809112
:1003500080008F7DE8CF80918000877FE4CF84B5D7
:100360008F7784BDE2CF84B58F7DFBCF8091B000C5
:100370008F778093B000D9CF8091B0008F7DF9CF77
:10038000809190008F7780939000CFCF80919000E4
:100390008F7DF9CF80919000877FF5CF8091A0006D
:1003A0008F778093A000C1CF8091A0008F7DF9CF7F
:1003B0008091A000877FF5CF809120018F77809377
:1003C0002001B3CF809120018F7DF9CF8091200152
:1003D000877FF5CF4E2BB8CF3FB7F89480916C0351
:1003E00090916D03A0916E03B0916F0326B5A89B09
:1003F00005C02F3F19F00196A11DB11D3FBFBA2FB7
:10040000A92F982F8827BC01CD01620F711D811D76
:10041000911D42E0660F771F881F991F4A95D1F7FB
:10042000089508950895AF92BF92CF92DF92EF9210
:10043000FF920F931F93CF93DF936C017B018B018E
:10044000040F151FEB015E01AE18BF08C017D107DE
:1004500059F06991D601ED91FC910190F081E02D68
:10046000C6011995892B79F7C501DF91CF911F91AD
:100470000F91FF90EF90DF90CF90BF90AF900895D5
:10048000FC01538D448D252F30E0842F90E0821B9A
:10049000930B541710F0CF96089501970895FC011F
:1004A000918D828D981761F0A28DAE0FBF2FB11D77
:1004B0005D968C91928D9F5F9F73928F90E00895CF
:1004C0008FEF9FEF0895FC01918D828D981731F089
:1004D000828DE80FF11D858D90E008958FEF9FEFDD
:1004E0000895FC01918D228D892F90E0805C9F4FB3
:1004F000821B91098F739927089580E793E00E94EA
:10050000710221E0892B09F420E0822F08958DE00B
:1005100094E00E94710221E0892B09F420E0822FEF
:100520000895FC01A48DA80FB92FB11DA35ABF4F88
:100530002C91848D90E001968F739927848FA689E2
:10054000B7892C93A089B1898C91837080648C9336
:10055000938D848D981306C00288F389E02D8081E5
:100560008F7D80830895EF92FF920F931F93CF9317
:10057000DF93EC0181E0888F9B8D8C8D98131AC0DE
:10058000E889F989808185FF15C09FB7F894EE89C5
:10059000FF896083E889F989808183708064808322
:1005A0009FBF81E090E0DF91CF911F910F91FF906D
:1005B000EF900895F62E0B8D10E00F5F1F4F0F7315
:1005C0001127E02E8C8D8E110CC00FB607FCFACFD0
:1005D000E889F989808185FFF5CFCE010E949102DB
:1005E000F1CFEB8DEC0FFD2FF11DE35AFF4FF082A1
:1005F0009FB7F8940B8FEA89FB8980818062CFCF07
:10060000CF93DF93EC01888D8823B9F0AA89BB8949
:10061000E889F9898C9185FD03C0808186FD0DC034
:100620000FB607FCF7CF8C9185FFF2CF808185FF55
:10063000EDCFCE010E949102E9CFDF91CF910895D5
:1006400080E090E0892B29F00E94870281110E94AE
:10065000000080E090E0892B49F080E090E0892B59
:1006600029F00E94000081110E94000080E090E0CB
:10067000892B29F00E947D0281110E94000080E0F8
:1006800090E0892B49F080E090E0892B29F00E94CE
:10069000000081110C940000089520911103260F91
:1006A0003327331F21323105ECF420913503FC014F
:1006B00090E080E0243069F082E00895A091110379
:1006C0002191AC014F505D4FA40FB52FB11D2C935C
:1006D0000196861798F380911103680F60931103B8
:1006E00080E0089581E008951092350381E08093C1
:1006F00037031092360361E084E10E94600161E0FB
:1007000085E10E946001E9EBF0E080818E7F8083CB
:1007100080818D7F808388E48093B80085E4809316
:10072000BC000895CF93DF9391E09093F00288236B
:10073000B9F0C091B800D091BA008091BC008A7B1A
:100740008093BC0060E084E10E94600160E085E18C
:100750000E9460010E947403D093BA00C093B80055
:10076000DF91CF9108950895E091600380915F0338
:10077000E81730F4F0E0E553FD4F808190E00895F4
:100780008FEF9FEF08959091600380915F032FEFAB
:100790003FEF981748F4E92FF0E0E553FD4F208133
:1007A00030E09F5F90936003C901089580915F03DB
:1007B00090916003891B990B0895CF92DF92EF927D
:1007C000FF920F931F93CF93DF937C01CB018A019C
:1007D00020916403222389F0EB016B01C40ED51E26
:1007E000CC15DD0569F06991D701ED91FC9101907F
:1007F000F081E02DC7011995F3CF642F0E944D03BE
:10080000C801DF91CF911F910F91FF90EF90DF9082
:10081000CF900895CF93DF931F92CDB7DEB7698352
:10082000209164032223F9F020916103203258F0D3
:1008300021E030E0FC013383228390E080E00F90E0
:10084000DF91CF91089580916203E82FF0E0E555A4
:10085000FD4F998190838F5F809362038093610342
:1008600081E090E0ECCF61E0CE0101960E944D0363
:10087000F7CFCF92DF92EF92FF920F931F93CF9318
:10088000DF93D091610381E0D13208F09CC0C09128
:1008900063030E94EC016B017C018091350381119F
:1008A0006CC082E08093350381E0809337038FEF43
:1008B0008093340310925903D0935803ABEAB2E00B
:1008C000E8E3F3E080E0D8138DC010925A038091E2
:1008D0005A03CC0FC82BC0935A0380913603813042
:1008E00009F084C0109236030E94EC016B017C0178
:1008F00080915A038093BB008091EC029091ED02AD
:10090000A091EE02B091EF02892B8A2B8B2BA1F0E4
:100910000E94EC010091EC021091ED022091EE0298
:100920003091EF026C197D098E099F090617170790
:100930002807390708F442C08091BC0083FDD8CF56
:1009400085EC8093BC000E94EC016B017C018091DE
:100950003503823009F44CC0809134038F3F09F491
:1009600069C080913403803209F466C080913403F9
:10097000803309F463C084E026C08091EC0290913A
:10098000ED02A091EE02B091EF02892B8A2B8B2B06
:1009900009F483CF0E94EC010091EC021091ED026A
:1009A0002091EE023091EF026C197D098E099F09AA
:1009B000061717072807390708F06FCF8091EB0259
:1009C0000E94920385E010926203109261031092DC
:1009D0006403DF91CF911F910F91FF90EF90DF9013
:1009E000CF9008959D9191938F5F6DCF85EEA9CFA4
:1009F0008091EC029091ED02A091EE02B091EF0295
:100A0000892B8A2B8B2B09F4A2CF0E94EC01009139
:100A1000EC021091ED022091EE023091EF026C1980
:100A20007D098E099F09061717072807390708F05F
:100A30008ECFC4CF80E0C7CF82E0C5CF83E0C3CFE5
:100A400090E080E00895DC01ED91FC910190F0814F
:100A5000E02D1994EF92FF920F931F93CF93DF93A2
:100A6000EC018AA59BA528A531E03093640320936F
:100A70006303109262031092610370E060E00E94D1
:100A800023058E01085E1F4F7E0188E2E80EF11CEF
:100A90008AA59BA5D8016D918D01DC01ED91FC919A
:100AA0000190F081E02D19950E151F0589F78AA593
:100AB0009BA5DF91CF911F910F91FF90EF900C9428
:100AC0003904FB0101900020E9F73197AF01461B83
:100AD000570B0C9413020F931F93CF93DF93EC01EA
:100AE0000E9461058C0160E872E0CE010E94610500
:100AF000800F911FDF91CF911F910F9108958F92D9
:100B00009F92AF92BF92CF92DF92EF92FF920F939C
:100B10001F93CF93DF93EC010E94EC014B015C012A
:100B200084E1C82ED12CE12CF12C0E94EC01681933
:100B300079098A099B09683E734081059105A8F3EC
:100B400021E0C21AD108E108F10888EE880E83E09E
:100B5000981EA11CB11CC114D104E104F10429F7B1
:100B600019A68AA59BA528A531E03093640320939C
:100B70006303109262031092610360E470E00E94CC
:100B800023058AA59BA50E94390418A50E94EC01A3
:100B90006B017C0180913503811166C081E08093F7
:100BA0003503809337039FEF9093340310925903DA
:100BB00095E09093580380935A0380915A03110F44
:100BC000182B10935A0380913603813009F094C09A
:100BD000109236030E94EC016B017C0180915A0354
:100BE0008093BB008091EC029091ED02A091EE0207
:100BF000B091EF02892B8A2B8B2BA1F00E94EC0184
:100C00000091EC021091ED022091EE023091EF0282
:100C10006C197D098E099F090617170728073907E0
:100C200008F443C08091BC0083FDD8CF85EC80934D
:100C3000BC000E94EC016B017C0180913503813086
:100C400009F45CC080915903863008F079C0809126
:100C50005903A8E3B3E0EBECF2E090E0981751F110
:100C60002D9121939F5FFACF8091EC029091ED023C
:100C7000A091EE02B091EF02892B8A2B8B2B09F405
:100C800089CF0E94EC018090EC029090ED02A09040
:100C9000EE02B090EF026C197D098E099F0986164D
:100CA0009706A806B90608F075CF8091EB020E945E
:100CB000920380E01092600380935F0310E000E0F5
:100CC0008AA59BA5DC01ED91FC910084F185E02DC6
:100CD0001995892BB9F18AA59BA5DC01ED91FC91B1
:100CE0000284F385E02D1995EC85FD85E00FF11F59
:100CF00080830F5F1F4FE4CF85EE99CF8091EC0288
:100D00009091ED02A091EE02B091EF02892B8A2B17
:100D10008B2B09F492CF0E94EC010091EC02109110
:100D2000ED022091EE023091EF026C197D098E09DF
:100D30009F09061717072807390708F07ECFB5CF98
:100D400086E087CF10E000E0FF24F394EC85FD857A
:100D5000E00FF11F9081EE85FF85E00FF11F80818C
:100D6000981799F0891718F563E872E080E793E027
:100D70000E946B05EC85FD85E00FF11F8081EE85FB
:100D8000FF85E00FF11F8083F9A60F5F1F4F06302C
:100D90001105E1F6DF91CF911F910F91FF90EF9038
:100DA000DF90CF90BF90AF909F908F9008956FE8A5
:100DB00072E080E793E00E946B05EC85FD85E00F13
:100DC000F11F8081EE85FF85E00FF11F8083DDCF6D
:100DD00085ED8093BC008091EC029091ED02A09192
:100DE000EE02B091EF020796A11DB11D23E0B6956A
:100DF000A795979587952A95D1F72091BC0024FD5A
:100E000003C01092350308954091EC025091ED0219
:100E10006091EE027091EF02452B462B472B69F350
:100E20000097A105B10541F02AE22A95F1F700C02B
:100E30000197A109B109E1CF8091EB020C949203D3
:100E40001F920F920FB60F9211242F933F938F93FF
:100E50009F93AF93BF938091680390916903A09192
:100E60006A03B0916B033091670323E0230F2D37A2
:100E700058F50196A11DB11D209367038093680367
:100E800090936903A0936A03B0936B0380916C0302
:100E900090916D03A0916E03B0916F030196A11D17
:100EA000B11D80936C0390936D03A0936E03B09378
:100EB0006F03BF91AF919F918F913F912F910F90B1
:100EC0000FBE0F901F90189526E8230F0296A11DC4
:100ED000B11DD2CF1F920F920FB60F9211240BB6F5
:100EE0000F922F933F934F935F936F937F938F93C3
:100EF0009F93AF93BF93EF93FF9380E793E00E949C
:100F00009102FF91EF91BF91AF919F918F917F914E
:100F10006F915F914F913F912F910F900BBE0F906A
:100F20000FBE0F901F9018951F920F920FB60F9241
:100F300011240BB60F922F938F939F93EF93FF93F0
:100F4000E0918003F09181038081E0918603F0912C
:100F5000870382FD1DC09081809189038F5F8F730D
:100F600020918A03821741F0E0918903F0E0E05973
:100F7000FC4F958F80938903FF91EF919F918F9103
:100F80002F910F900BBE0F900FBE0F901F901895D2
:100F90008081F2CF1F920F920FB60F9211240BB6E1
:100FA0000F922F933F934F935F936F937F938F9302
:100FB0009F93AF93BF93EF93FF938DE094E00E94D4
:100FC0009102FF91EF91BF91AF919F918F917F918E
:100FD0006F915F914F913F912F910F900BBE0F90AA
:100FE0000FBE0F901F9018951F920F920FB60F9281
:100FF00011240BB60F922F938F939F93EF93FF9330
:10100000E0911D04F0911E048081E0912304F09191
:10101000240482FD1DC09081809126048F5F8F7310
:1010200020912704821741F0E0912604F0E0E35F6D
:10103000FB4F958F80932604FF91EF919F918F91A5
:101040002F910F900BBE0F900FBE0F901F90189511
:101050008081F2CF1F920F920FB60F9211240BB620
:101060000F922F933F934F935F936F937F938F9341
:101070009F93AF93BF93EF93FF938091B900887FC5
:10108000803609F44DC008F040C0883209F4A9C088
:1010900028F5803109F49DC0C8F4882309F4FBC009
:1010A000883009F496C0FF91EF91BF91AF919F9165
:1010B0008F917F916F915F914F913F912F910F9001
:1010C0000BBE0F900FBE0F901F901895883109F43A
:1010D00088C0803241F78093340314C0803409F40F
:1010E0009DC040F48033B9F38833E9F6809334032C
:1010F00085ECB0C0803509F485C0883509F496C008
:10110000883489F60E94E806CECF883909F48CC06D
:1011100038F5883729F050F4883611F0803719F601
:1011200083E0809335031092330357C0883809F465
:101130007BC0803919F0803809F0B5CF8091330336
:10114000803208F071C0E091330381E08E0F80930C
:1011500033038091BB00F0E0ED5EFC4F80833DC027
:10116000803B39F0E0F4803A09F479C0883A09F01C
:101170009ACF84E0809335031092120310921103EA
:10118000E0915D03F0915E03199580911103811147
:101190000FC081E0809311031092F10209C0803CDE
:1011A00009F4A6CF883C09F4A3CF883B09F07BCF94
:1011B000E091120381E08E0F80931203F0E0EF5074
:1011C000FD4F80818093BB009091120380911103A9
:1011D00029C080915A038093BB0085EC8093BC00AA
:1011E00062CF9091590380915803981758F5E09178
:1011F000590381E08E0F80935903F0E0E85CFC4FC7
:101200008081E9CFE091590381E08E0F80935903EB
:101210008091BB00F0E0E85CFC4F80839091590323
:10122000809158039817C8F285E8D8CFE091590308
:1012300081E08E0F809359038091BB00F0E0E85C61
:10124000FC4F80838091370381115CCF81E08093D4
:10125000360384EA8093BC001092350324CF85ECDA
:101260008093BC001092350380913303803230F4B8
:10127000E0913303F0E0ED5EFC4F108260913303A8
:1012800070E0E0915B03F0915C0383E193E01995DA
:101290001092330308CF1092340334CF1F920F9271
:1012A0000FB60F9211242F933F934F938F939F93D9
:1012B0001092AA0293B183B186FB882780F995FD2D
:1012C00034C0882371F1809106018093A902409176
:1012D000A902242F30E0C9019595879595958795AA
:1012E0008E7395E0220F331F9A95E1F7207C822BB5
:1012F0004170842B8093A9025F9A000000000000D7
:101300000000000000000000000000005F989F91B6
:101310008F914F913F912F910F900FBE0F901F9083
:10132000189581E08093AA02F2CF8111FACF8FEF56
:1013300080930701109208014091A802242F30E009
:10134000C901880F991F880F991F887F95E03595EF
:1013500027959A95E1F72670822B4170842B809314
:1013600008018091A8028F5F8093A80280910101FB
:10137000806480930101809102018F7B8093020140
:101380005F9A8091000185FDFCCF109207011092B9
:1013900008015F988091020180648093020180912E
:1013A00001018F7B80930101B2CFE0E7F3E013826C
:1013B000128288EE93E0A0E0B0E084839583A68358
:1013C000B78320E632E03183208345ED50E0558736
:1013D000448744ED50E05787468740ED50E0518BFD
:1013E000408B41ED50E0538B428B42ED50E0558BEA
:1013F000448B46ED50E0578B468B118E128E138E28
:10140000148EEDE0F4E01382128284839583A68328
:10141000B7833183208325EC30E03587248724ECA3
:1014200030E03787268720EC30E0318B208B21ECB1
:1014300030E0338B228B22EC30E0358B248B26EC92
:1014400030E0378B268B118E128E138E148EEAEAC3
:10145000F4E01382128284839583A683B78382E7A4
:1014600092E0918380830895CF93DF93CDB7DEB769
:10147000A1970FB6F894DEBF0FBECDBF789484B5A8
:10148000826084BD84B5816084BD85B5826085BD80
:1014900085B5816085BD80916E00816080936E000E
:1014A0001092810080918100826080938100809100
:1014B00081008160809381008091800081608093B1
:1014C00080008091B10084608093B1008091B00071
:1014D00081608093B0008091910082608093910040
:1014E0008091910081608093910080919000816053
:1014F000809390008091A10082608093A1008091F0
:10150000A10081608093A1008091A0008160809300
:10151000A0008091210182608093210180912101AE
:10152000816080932101809120018160809320015E
:1015300080917A00846080937A0080917A00826042
:1015400080937A0080917A00816080937A00809104
:101550007A00806880937A001092C10014B883E802
:101560008AB91092040110920A0110920701109298
:1015700008018BE18093010180E383BB18E060E008
:1015800086E00E94600161E087E00E94600160E007
:1015900087E00E946001115091F718E00BEC602F7A
:1015A000661F6627661F86E00E946001000F61E0EB
:1015B00087E00E94600160E087E00E9460011150B6
:1015C00071F761E087E00E94600160E087E00E94BF
:1015D0006001E0918003F091810382E08083E091DB
:1015E0007C03F0917D031082E0917E03F0917F03F4
:1015F0008FEC808310928803E0918403F09185033F
:1016000066E0F62EF082E0918203F0918303808100
:1016100080618083E0918203F09183038081886000
:101620008083E0918203F0918303808180688083CE
:10163000E0918203F091830380818F7D80838CE22F
:1016400090E00E94BF0C8C01DC01EF2D1D92EA9509
:10165000E9F7FC013696DF011D92FA94E9F7DC0107
:101660001D969C938E931C971F96FC93EE931E974A
:101670007C01B0E1EB0EF11C88E0F70111928A9534
:10168000E9F7F801789680E1DF011D928A95E9F784
:10169000F80111A680E780A78AEA94E093A782A7C1
:1016A0001092600310925F03109262031092610324
:1016B0000E94740381E192E090935E0380935D0346
:1016C00082E192E090935C0380935B031093660346
:1016D00000936503C8010E947F056CE972E08DE00C
:1016E00094E00E946B05D80198968C9190E0B0E050
:1016F000A0E019A2FE01B196AC01BD014F705527C3
:101700006627772754E0B695A795979587955A95BC
:10171000D1F74A300CF001C1405D42930097A1051A
:10172000B10551F7309729F0BF018DE094E00E9498
:10173000610560E872E08DE094E00E946105F801C7
:1017400082A593A520A5DD24D394D0926403209391
:101750006303109262031092610361E270E00E94E1
:101760002305D8019A968D919C910E943904F80125
:1017700082A593A520A5D0926403209363031092C1
:1017800062031092610361E870E00E942305D801B2
:101790009A968D919C910E943904F80182A593A597
:1017A00020A5D092640320936303109262031092E9
:1017B000610360EE70E00E942305D8019A968D9136
:1017C0009C910E943904F80182A593A520A5D0928E
:1017D000640320936303109262031092610370E02C
:1017E00060E00E94230530E1C32ED12C70E060E060
:1017F000D8019A968D919C910E942305B1E0CB1A55
:10180000D108A1F7F80182A593A50E943904D70158
:10181000F801C8010C9660E3D62E7FE3E72E21E1A4
:10182000F22EDD92E08EF18E32968E179F07C9F769
:10183000C8010E942A051DBA80E88093690088E0EB
:101840008DBB8BB18BB98FEF81B987B98DB980BB57
:1018500093B39F6093BB82B988B98EB981BB84B3BF
:101860008F6084BBE0916503F0916603D58AE2A2A4
:10187000F3A2D48AE0A2F1A2D38AE68EF78ED28AAE
:10188000E48EF58ED18AE28EF38ED08AE08EF18ED0
:10189000CF010E942A050AE310E080916503909130
:1018A00066030E947F052091650330916603D9018C
:1018B00099968C91882371F145E0E42EF12CF90181
:1018C000EE0DFF1DD0886D2D6150770BCB01B80157
:1018D0000E948F0C803308F489E3808BE0EDE80FE1
:1018E000F0E0EE0FFF1FEE0CFF1CD901AE0DBF1D87
:1018F000EA5FFD4F908158969C9358979181599635
:101900009C93473008F046E04150D816B0F2C90128
:101910000E942A050E942003C0CF495CFECE97FB9F
:10192000072E16F4009407D077FD09D00E94AB0C67
:1019300007FC05D03EF4909581959F4F08957095D2
:1019400061957F4F0895EE0FFF1F881F8BBF079093
:10195000F691E02D1994AA1BBB1B51E107C0AA1FE9
:10196000BB1FA617B70710F0A61BB70B881F991F40
:101970005A95A9F780959095BC01CD0108950F93D4
:101980001F93CF93DF938230910510F482E090E0B3
:10199000E091B804F091B90430E020E0B0E0A0E0BC
:1019A000309799F42115310509F44AC0281B390BE9
:1019B00024303105D8F58A819B816115710589F143
:1019C000FB0193838283FE0111C04081518102811A
:1019D000138148175907E0F04817590799F41097F1
:1019E00061F012960C93129713961C933296CF01C6
:1019F000DF91CF911F910F9108950093B804109338
:101A0000B904F4CF2115310551F04217530738F0CE
:101A1000A901DB019A01BD01DF01F801C1CFEF018E
:101A2000F9CF9093B9048093B804CDCFFE01E20FB3
:101A3000F31F819391932250310939832883D7CFA3
:101A40002091B6043091B704232B41F42091020277
:101A5000309103023093B7042093B6042091000222
:101A6000309101022115310541F42DB73EB7409167
:101A7000040250910502241B350BE091B604F0914D
:101A8000B704E217F307A0F42E1B3F0B2817390702
:101A900078F0AC014E5F5F4F2417350748F04E0FCA
:101AA0005F1F5093B7044093B604819391939FCFE7
:101AB000F0E0E0E09CCFCF93DF930097E9F0FC01EA
:101AC000329713821282A091B804B091B904ED014B
:101AD00030E020E01097A1F420813181820F931F24
:101AE0002091B6043091B7042817390709F061C076
:101AF000F093B704E093B604DF91CF910895EA0123
:101B0000CE17DF07E8F54A815B819E01411551053B
:101B1000B1F7E901FB83EA8349915991C40FD51FBD
:101B2000EC17FD0761F4808191810296840F951F67
:101B3000E90199838883828193819B838A83F0E082
:101B4000E0E012968D919C9113970097B9F52D9135
:101B50003C911197CD010296820F931F2091B604FC
:101B60003091B7042817390739F6309751F510929C
:101B7000B9041092B804B093B704A093B604BCCFD4
:101B8000D383C28340815181840F951FC817D90721
:101B900061F44E5F5F4F88819981480F591F5183CF
:101BA00040838A819B81938382832115310509F0CB
:101BB000B0CFF093B904E093B8049ECFFD01DC01EF
:0C1BC000C0CF13821282D7CFF894FFCF61
:101BCC000000BA0480003F1106011B220F022622DE
:101BDC002D223D2201113F2227220000000000008F
:101BEC00000000000000000037228F0A39008F0827
:101BFC00392031203D02362289081E00302538005C
:101C0C00760176043F0033223F0433262D228108CF
:101C1C003E00301136144015400909110000000037
:101C2C00B30213024002000371024F026302000070
:101C3C0000000A04DD032005B303D603C303B40379
:101C4C000D0A00726973696E6720656467650066CA
:101C5C00616C6C696E67206564676500696E697498
:061C6C002064736B790097
:00000001FF
