:020000040000FA
:100000000C942D010C945E010C945E010C945E0125
:100010000C944E090C945E010C945E010C945E01EC
:100020000C945E010C945E010C945E010C945E01D4
:100030000C945E010C945E010C945E010C945E01C4
:100040000C945E010C945E010C945E010C945E01B4
:100050000C945E010C945E010C945E010C942007DC
:100060000C945E010C94F4070C94CA070C945E0186
:100070000C945E010C945E010C945E010C945E0184
:100080000C945E010C945E010C945E010C945E0174
:100090000C945E010C945E010C945E010C942A0891
:1000A0000C945E010C945E010C945E010C945E0154
:1000B0000C945E010C945E010C945E010C945E0144
:1000C0000C945E010C945E010C945E010C949407F8
:1000D0000C946A070C945E010C945E010C945E0112
:1000E0000C945E010C9413020C94C6010C944F0204
:1000F0000C94E6010C94DC010C940A040C94CA01E3
:100100000C9490010C94B3020C94D8010C94DD0370
:100110000C9420050C94D5090C9495010C94C30300
:100120000C9440020C94BC010C94B6010C94110286
:100130000C9463020C94C0010C94AB010C94B301B9
:100140000C94B4030C9471020C94B3030C9400034C
:100150000C9412020C94AF010C94E2010C94A701D0
:100160000C94D6030C94D4010C94CE010000220010
:10017000250028002B002E00310034000201000071
:10018000050108010B010505050507050808080814
:10019000020202020A0A080804040404010101011F
:1001A000010101010303030303030303040707071A
:1001B0000C0C0C0C0C0C0C0C0202020206060606BF
:1001C000060606060B0B0B0B0B0B0B0B010210208C
:1001D000200808102040102040800201020108047D
:1001E0000201010204081020408080402010080411
:1001F000020180040201804020100804020108046A
:1002000002010102040810204080010204081020AD
:10021000408000000A0B02090C0D0E0807030401C0
:1002200000000000000000000000000000000000CE
:10023000000000000000000000000000000012119B
:10024000100000000000000000000000000000009E
:100250000000000000000000D50911241FBECFEFF0
:10026000D1E2DEBFCDBF00E00CBF12E0A0E0B2E003
:10027000ECECFBE100E00BBF02C007900D92A63A48
:10028000B107D9F724E0A6EAB2E001C01D92AA3B6B
:10029000B207E1F711E0CDE2D1E000E006C021971E
:1002A0000109802FFE010E94A30CCC32D10780E00F
:1002B0000807A9F70E94340A0C94E40D0C9400007E
:1002C000282F30E0F901EE5EFD4F9491F901E453DF
:1002D000FE4F44912A573E4FF9012491222309F4FD
:1002E00035C0992311F191509231F8F4E92FF0E0E3
:1002F0008827E258FE4F8F4F0C94A30CAF01B30137
:100300009001A701AB019501B601BC01C001C60176
:10031000CA01CE01D401D8019501DC01E201E60158
:10032000809180008F7780938000E22FF0E0EE0FC5
:10033000FF1FE459FE4FA591B4918FB7F894EC914B
:10034000611148C040954E234C938FBF0895809112
:1003500080008F7DE8CF80918000877FE4CF84B5D7
:100360008F7784BDE2CF84B58F7DFBCF8091B000C5
:100370008F778093B000D9CF8091B0008F7DF9CF77
:10038000809190008F7780939000CFCF80919000E4
:100390008F7DF9CF80919000877FF5CF8091A0006D
:1003A0008F778093A000C1CF8091A0008F7DF9CF7F
:1003B0008091A000877FF5CF809120018F77809377
:1003C0002001B3CF809120018F7DF9CF8091200152
:1003D000877FF5CF4E2BB8CF3FB7F89480916C0351
:1003E00090916D03A0916E03B0916F0326B5A89B09
:1003F00005C02F3F19F00196A11DB11D3FBFBA2FB7
:10040000A92F982F8827BC01CD01620F711D811D76
:10041000911D42E0660F771F881F991F4A95D1F7FB
:10042000089508950895AF92BF92CF92DF92EF9210
:10043000FF920F931F93CF93DF936C017B018B018E
:10044000040F151FEB015E01AE18BF08C017D107DE
:1004500059F06991D601ED91FC910190F081E02D68
:10046000C6011995892B79F7C501DF91CF911F91AD
:100470000F91FF90EF90DF90CF90BF90AF900895D5
:10048000FC01538D448D252F30E0842F90E0821B9A
:10049000930B541710F0CF96089501970895FC011F
:1004A000918D828D981761F0A28DAE0FBF2FB11D77
:1004B0005D968C91928D9F5F9F73928F90E00895CF
:1004C0008FEF9FEF0895FC01918D828D981731F089
:1004D000828DE80FF11D858D90E008958FEF9FEFDD
:1004E0000895FC01918D228D892F90E0805C9F4FB3
:1004F000821B91098F739927089580E793E00E94EA
:10050000710221E0892B09F420E0822F08958DE00B
:1005100094E00E94710221E0892B09F420E0822FEF
:100520000895FC01A48DA80FB92FB11DA35ABF4F88
:100530002C91848D90E001968F739927848FA689E2
:10054000B7892C93A089B1898C91837080648C9336
:10055000938D848D981306C00288F389E02D8081E5
:100560008F7D80830895EF92FF920F931F93CF9317
:10057000DF93EC0181E0888F9B8D8C8D98131AC0DE
:10058000E889F989808185FF15C09FB7F894EE89C5
:10059000FF896083E889F989808183708064808322
:1005A0009FBF81E090E0DF91CF911F910F91FF906D
:1005B000EF900895F62E0B8D10E00F5F1F4F0F7315
:1005C0001127E02E8C8D8E110CC00FB607FCFACFD0
:1005D000E889F989808185FFF5CFCE010E949102DB
:1005E000F1CFEB8DEC0FFD2FF11DE35AFF4FF082A1
:1005F0009FB7F8940B8FEA89FB8980818062CFCF07
:10060000CF93DF93EC01888D8823B9F0AA89BB8949
:10061000E889F9898C9185FD03C0808186FD0DC034
:100620000FB607FCF7CF8C9185FFF2CF808185FF55
:10063000EDCFCE010E949102E9CFDF91CF910895D5
:1006400080E090E0892B29F00E94870281110E94AE
:10065000000080E090E0892B49F080E090E0892B59
:1006600029F00E94000081110E94000080E090E0CB
:10067000892B29F00E947D0281110E94000080E0F8
:1006800090E0892B49F080E090E0892B29F00E94CE
:10069000000081110C940000089520911103260F91
:1006A0003327331F21323105ECF420913503FC014F
:1006B00090E080E0243069F082E00895A091110379
:1006C0002191AC014F505D4FA40FB52FB11D2C935C
:1006D0000196861798F380911103680F60931103B8
:1006E00080E0089581E008951092350381E08093C1
:1006F00037031092360361E084E10E94600161E0FB
:1007000085E10E946001E9EBF0E080818E7F8083CB
:1007100080818D7F808388E48093B80085E4809316
:10072000BC000895CF93DF9391E09093F00288236B
:10073000B9F0C091B800D091BA008091BC008A7B1A
:100740008093BC0060E084E10E94600160E085E18C
:100750000E9460010E947403D093BA00C093B80055
:10076000DF91CF9108950895E091600380915F0338
:10077000E81730F4F0E0E553FD4F808190E00895F4
:100780008FEF9FEF08959091600380915F032FEFAB
:100790003FEF981748F4E92FF0E0E553FD4F208133
:1007A00030E09F5F90936003C901089580915F03DB
:1007B00090916003891B990B0895CF92DF92EF927D
:1007C000FF920F931F93CF93DF937C01CB018A019C
:1007D00020916403222389F0EB016B01C40ED51E26
:1007E000CC15DD0569F06991D701ED91FC9101907F
:1007F000F081E02DC7011995F3CF642F0E944D03BE
:10080000C801DF91CF911F910F91FF90EF90DF9082
:10081000CF900895CF93DF931F92CDB7DEB7698352
:10082000209164032223F9F020916103203258F0D3
:1008300021E030E0FC013383228390E080E00F90E0
:10084000DF91CF91089580916203E82FF0E0E555A4
:10085000FD4F998190838F5F809362038093610342
:1008600081E090E0ECCF61E0CE0101960E944D0363
:10087000F7CFCF92DF92EF92FF920F931F93CF9318
:10088000DF93D091610381E0D13208F09CC0C09128
:1008900063030E94EC016B017C018091350381119F
:1008A0006CC082E08093350381E0809337038FEF43
:1008B0008093340310925903D0935803ABEAB2E00B
:1008C000E8E3F3E080E0D8138DC010925A038091E2
:1008D0005A03CC0FC82BC0935A0380913603813042
:1008E00009F084C0109236030E94EC016B017C0178
:1008F00080915A038093BB008091EC029091ED02AD
:10090000A091EE02B091EF02892B8A2B8B2BA1F0E4
:100910000E94EC010091EC021091ED022091EE0298
:100920003091EF026C197D098E099F090617170790
:100930002807390708F442C08091BC0083FDD8CF56
:1009400085EC8093BC000E94EC016B017C018091DE
:100950003503823009F44CC0809134038F3F09F491
:1009600069C080913403803209F466C080913403F9
:10097000803309F463C084E026C08091EC0290913A
:10098000ED02A091EE02B091EF02892B8A2B8B2B06
:1009900009F483CF0E94EC010091EC021091ED026A
:1009A0002091EE023091EF026C197D098E099F09AA
:1009B000061717072807390708F06FCF8091EB0259
:1009C0000E94920385E010926203109261031092DC
:1009D0006403DF91CF911F910F91FF90EF90DF9013
:1009E000CF9008959D9191938F5F6DCF85EEA9CFA4
:1009F0008091EC029091ED02A091EE02B091EF0295
:100A0000892B8A2B8B2B09F4A2CF0E94EC01009139
:100A1000EC021091ED022091EE023091EF026C1980
:100A20007D098E099F09061717072807390708F05F
:100A30008ECFC4CF80E0C7CF82E0C5CF83E0C3CFE5
:100A400090E080E00895DC01ED91FC910190F0814F
:100A5000E02D1994EF92FF920F931F93CF93DF93A2
:100A6000EC018AA59BA528A531E03093640320936F
:100A70006303109262031092610370E060E00E94D1
:100A800023058E01085E1F4F7E0188E2E80EF11CEF
:100A90008AA59BA5D8016D918D01DC01ED91FC919A
:100AA0000190F081E02D19950E151F0589F78AA593
:100AB0009BA5DF91CF911F910F91FF90EF900C9428
:100AC0003904FB0101900020E9F73197AF01461B83
:100AD000570B0C9413020F931F93CF93DF93EC01EA
:100AE0000E9461058C0160E872E0CE010E94610500
:100AF000800F911FDF91CF911F910F9108958F92D9
:100B00009F92AF92BF92CF92DF92EF92FF920F939C
:100B10001F93CF93DF93EC010E94EC014B015C012A
:100B200084E1C82ED12CE12CF12C0E94EC01681933
:100B300079098A099B09683E734081059105A8F3EC
:100B400021E0C21AD108E108F10888EE880E83E09E
:100B5000981EA11CB11CC114D104E104F10429F7B1
:100B600019A68AA59BA528A531E03093640320939C
:100B70006303109262031092610360E470E00E94CC
:100B800023058AA59BA50E94390418A50E94EC01A3
:100B90006B017C0180913503811166C081E08093F7
:100BA0003503809337039FEF9093340310925903DA
:100BB00095E09093580380935A0380915A03110F44
:100BC000182B10935A0380913603813009F094C09A
:100BD000109236030E94EC016B017C0180915A0354
:100BE0008093BB008091EC029091ED02A091EE0207
:100BF000B091EF02892B8A2B8B2BA1F00E94EC0184
:100C00000091EC021091ED022091EE023091EF0282
:100C10006C197D098E099F090617170728073907E0
:100C200008F443C08091BC0083FDD8CF85EC80934D
:100C3000BC000E94EC016B017C0180913503813086
:100C400009F45CC080915903863008F079C0809126
:100C50005903A8E3B3E0EBECF2E090E0981751F110
:100C60002D9121939F5FFACF8091EC029091ED023C
:100C7000A091EE02B091EF02892B8A2B8B2B09F405
:100C800089CF0E94EC018090EC029090ED02A09040
:100C9000EE02B090EF026C197D098E099F0986164D
:100CA0009706A806B90608F075CF8091EB020E945E
:100CB000920380E01092600380935F0310E000E0F5
:100CC0008AA59BA5DC01ED91FC910084F185E02DC6
:100CD0001995892BB9F18AA59BA5DC01ED91FC91B1
:100CE0000284F385E02D1995EC85FD85E00FF11F59
:100CF00080830F5F1F4FE4CF85EE99CF8091EC0288
:100D00009091ED02A091EE02B091EF02892B8A2B17
:100D10008B2B09F492CF0E94EC010091EC02109110
:100D2000ED022091EE023091EF026C197D098E09DF
:100D30009F09061717072807390708F07ECFB5CF98
:100D400086E087CF10E000E0FF24F394EC85FD857A
:100D5000E00FF11F9081EE85FF85E00FF11F80818C
:100D6000981799F0891718F563E872E080E793E027
:100D70000E946B05EC85FD85E00FF11F8081EE85FB
:100D8000FF85E00FF11F8083F9A60F5F1F4F06302C
:100D90001105E1F6DF91CF911F910F91FF90EF9038
:100DA000DF90CF90BF90AF909F908F9008956FE8A5
:100DB00072E080E793E00E946B05EC85FD85E00F13
:100DC000F11F8081EE85FF85E00FF11F8083DDCF6D
:100DD00085ED8093BC008091EC029091ED02A09192
:100DE000EE02B091EF020796A11DB11D23E0B6956A
:100DF000A795979587952A95D1F72091BC0024FD5A
:100E000003C01092350308954091EC025091ED0219
:100E10006091EE027091EF02452B462B472B69F350
:100E20000097A105B10541F02AE22A95F1F700C02B
:100E30000197A109B109E1CF8091EB020C949203D3
:100E40001F920F920FB60F9211242F933F938F93FF
:100E50009F93AF93BF938091680390916903A09192
:100E60006A03B0916B033091670323E0230F2D37A2
:100E700058F50196A11DB11D209367038093680367
:100E800090936903A0936A03B0936B0380916C0302
:100E900090916D03A0916E03B0916F030196A11D17
:100EA000B11D80936C0390936D03A0936E03B09378
:100EB0006F03BF91AF919F918F913F912F910F90B1
:100EC0000FBE0F901F90189526E8230F0296A11DC4
:100ED000B11DD2CF1F920F920FB60F9211240BB6F5
:100EE0000F922F933F934F935F936F937F938F93C3
:100EF0009F93AF93BF93EF93FF9380E793E00E949C
:100F00009102FF91EF91BF91AF919F918F917F914E
:100F10006F915F914F913F912F910F900BBE0F906A
:100F20000FBE0F901F9018951F920F920FB60F9241
:100F300011240BB60F922F938F939F93EF93FF93F0
:100F4000E0918003F09181038081E0918603F0912C
:100F5000870382FD1DC09081809189038F5F8F730D
:100F600020918A03821741F0E0918903F0E0E05973
:100F7000FC4F958F80938903FF91EF919F918F9103
:100F80002F910F900BBE0F900FBE0F901F901895D2
:100F90008081F2CF1F920F920FB60F9211240BB6E1
:100FA0000F922F933F934F935F936F937F938F9302
:100FB0009F93AF93BF93EF93FF938DE094E00E94D4
:100FC0009102FF91EF91BF91AF919F918F917F918E
:100FD0006F915F914F913F912F910F900BBE0F90AA
:100FE0000FBE0F901F9018951F920F920FB60F9281
:100FF00011240BB60F922F938F939F93EF93FF9330
:10100000E0911D04F0911E048081E0912304F09191
:10101000240482FD1DC09081809126048F5F8F7310
:1010200020912704821741F0E0912604F0E0E35F6D
:10103000FB4F958F80932604FF91EF919F918F91A5
:101040002F910F900BBE0F900FBE0F901F90189511
:101050008081F2CF1F920F920FB60F9211240BB620
:101060000F922F933F934F935F936F937F938F9341
:101070009F93AF93BF93EF93FF938091B900887FC5
:10108000803609F44DC008F040C0883209F4A9C088
:1010900028F5803109F49DC0C8F4882309F4FBC009
:1010A000883009F496C0FF91EF91BF91AF919F9165
:1010B0008F917F916F915F914F913F912F910F9001
:1010C0000BBE0F900FBE0F901F901895883109F43A
:1010D00088C0803241F78093340314C0803409F40F
:1010E0009DC040F48033B9F38833E9F6809334032C
:1010F00085ECB0C0803509F485C0883509F496C008
:10110000883489F60E94E806CECF883909F48CC06D
:1011100038F5883729F050F4883611F0803719F601
:1011200083E0809335031092330357C0883809F465
:101130007BC0803919F0803809F0B5CF8091330336
:10114000803208F071C0E091330381E08E0F80930C
:1011500033038091BB00F0E0ED5EFC4F80833DC027
:10116000803B39F0E0F4803A09F479C0883A09F01C
:101170009ACF84E0809335031092120310921103EA
:10118000E0915D03F0915E03199580911103811147
:101190000FC081E0809311031092F10209C0803CDE
:1011A00009F4A6CF883C09F4A3CF883B09F07BCF94
:1011B000E091120381E08E0F80931203F0E0EF5074
:1011C000FD4F80818093BB009091120380911103A9
:1011D00029C080915A038093BB0085EC8093BC00AA
:1011E00062CF9091590380915803981758F5E09178
:1011F000590381E08E0F80935903F0E0E85CFC4FC7
:101200008081E9CFE091590381E08E0F80935903EB
:101210008091BB00F0E0E85CFC4F80839091590323
:10122000809158039817C8F285E8D8CFE091590308
:1012300081E08E0F809359038091BB00F0E0E85C61
:10124000FC4F80838091370381115CCF81E08093D4
:10125000360384EA8093BC001092350324CF85ECDA
:101260008093BC001092350380913303803230F4B8
:10127000E0913303F0E0ED5EFC4F108260913303A8
:1012800070E0E0915B03F0915C0383E193E01995DA
:101290001092330308CF1092340334CF1F920F9271
:1012A0000FB60F9211242F933F934F938F939F93D9
:1012B0001092AA0293B183B186FB882780F995FD2D
:1012C00034C0882371F1809106018093A902409176
:1012D000A902242F30E0C9019595879595958795AA
:1012E0008E7395E0220F331F9A95E1F7207C822BB5
:1012F0004170842B8093A9025F9A000000000000D7
:101300000000000000000000000000005F989F91B6
:101310008F914F913F912F910F900FBE0F901F9083
:10132000189581E08093AA02F2CF8111FACF8FEF56
:1013300080930701109208014091A802242F30E009
:10134000C901880F991F880F991F887F95E03595EF
:1013500027959A95E1F72670822B4170842B809314
:1013600008018091A8028F5F8093A80280910101FB
:10137000806480930101809102018F7B8093020140
:101380005F9A8091000185FDFCCF109207011092B9
:1013900008015F988091020180648093020180912E
:1013A00001018F7B80930101B2CFE0E7F3E013826C
:1013B000128288EE93E0A0E0B0E084839583A68358
:1013C000B78320E632E03183208345ED50E0558736
:1013D000448744ED50E05787468740ED50E0518BFD
:1013E000408B41ED50E0538B428B42ED50E0558BEA
:1013F000448B46ED50E0578B468B118E128E138E28
:10140000148EEDE0F4E01382128284839583A68328
:10141000B7833183208325EC30E03587248724ECA3
:1014200030E03787268720EC30E0318B208B21ECB1
:1014300030E0338B228B22EC30E0358B248B26EC92
:1014400030E0378B268B118E128E138E148EEAEAC3
:10145000F4E01382128284839583A683B78382E7A4
:1014600092E0918380830895CF93DF93CDB7DEB769
:10147000A1970FB6F894DEBF0FBECDBF789484B5A8
:10148000826084BD84B5816084BD85B5826085BD80
:1014900085B5816085BD80916E00816080936E000E
:1014A0001092810080918100826080938100809100
:1014B00081008160809381008091800081608093B1
:1014C00080008091B10084608093B1008091B00071
:1014D00081608093B0008091910082608093910040
:1014E0008091910081608093910080919000816053
:1014F000809390008091A10082608093A1008091F0
:10150000A10081608093A1008091A0008160809300
:10151000A0008091210182608093210180912101AE
:10152000816080932101809120018160809320015E
:1015300080917A00846080937A0080917A00826042
:1015400080937A0080917A00816080937A00809104
:101550007A00806880937A001092C10014B883E802
:101560008AB91092040110920A0110920701109298
:1015700008018BE18093010180E383BB18E060E008
:1015800086E00E94600161E087E00E94600160E007
:1015900087E00E946001115091F718E00BEC602F7A
:1015A000661F6627661F86E00E946001000F61E0EB
:1015B00087E00E94600160E087E00E9460011150B6
:1015C00071F761E087E00E94600160E087E00E94BF
:1015D0006001E0918003F091810382E08083E091DB
:1015E0007C03F0917D031082E0917E03F0917F03F4
:1015F0008FEC808310928803E0918403F09185033F
:1016000066E0F62EF082E0918203F0918303808100
:1016100080618083E0918203F09183038081886000
:101620008083E0918203F0918303808180688083CE
:10163000E0918203F091830380818F7D80838CE22F
:1016400090E00E94BF0C8C01DC01EF2D1D92EA9509
:10165000E9F7FC013696DF011D92FA94E9F7DC0107
:101660001D969C938E931C971F96FC93EE931E974A
:101670007C01B0E1EB0EF11C88E0F70111928A9534
:10168000E9F7F801789680E1DF011D928A95E9F784
:10169000F80111A680E780A78AEA94E093A782A7C1
:1016A0001092600310925F03109262031092610324
:1016B0000E94740381E192E090935E0380935D0346
:1016C00082E192E090935C0380935B031093660346
:1016D00000936503C8010E947F056CE972E08DE00C
:1016E00094E00E946B05D80198968C9190E0B0E050
:1016F000A0E019A2FE01B196AC01BD014F705527C3
:101700006627772754E0B695A795979587955A95BC
:10171000D1F74A300CF001C1405D42930097A1051A
:10172000B10551F7309729F0BF018DE094E00E9498
:10173000610560E872E08DE094E00E946105F801C7
:1017400082A593A520A5DD24D394D0926403209391
:101750006303109262031092610361E270E00E94E1
:101760002305D8019A968D919C910E943904F80125
:1017700082A593A520A5D0926403209363031092C1
:1017800062031092610361E870E00E942305D801B2
:101790009A968D919C910E943904F80182A593A597
:1017A00020A5D092640320936303109262031092E9
:1017B000610360EE70E00E942305D8019A968D9136
:1017C0009C910E943904F80182A593A520A5D0928E
:1017D000640320936303109262031092610370E02C
:1017E00060E00E94230530E1C32ED12C70E060E060
:1017F000D8019A968D919C910E942305B1E0CB1A55
:10180000D108A1F7F80182A593A50E943904D70158
:10181000F801C8010C9660E3D62E7FE3E72E21E1A4
:10182000F22EDD92E08EF18E32968E179F07C9F769
:10183000C8010E942A051DBA80E88093690088E0EB
:101840008DBB8BB18BB98FEF81B987B98DB980BB57
:1018500093B39F6093BB82B988B98EB981BB84B3BF
:101860008F6084BBE0916503F0916603D58AE2A2A4
:10187000F3A2D48AE0A2F1A2D38AE68EF78ED28AAE
:10188000E48EF58ED18AE28EF38ED08AE08EF18ED0
:10189000CF010E942A050AE310E080916503909130
:1018A00066030E947F052091650330916603D9018C
:1018B00099968C91882371F145E0E42EF12CF90181
:1018C000EE0DFF1DD0886D2D6150770BCB01B80157
:1018D0000E948F0C803308F489E3808BE0EDE80FE1
:1018E000F0E0EE0FFF1FEE0CFF1CD901AE0DBF1D87
:1018F000EA5FFD4F908158969C9358979181599635
:101900009C93473008F046E04150D816B0F2C90128
:101910000E942A050E942003C0CF495CFECE97FB9F
:10192000072E16F4009407D077FD09D00E94AB0C67
:1019300007FC05D03EF4909581959F4F08957095D2
:1019400061957F4F0895EE0FFF1F881F8BBF079093
:10195000F691E02D1994AA1BBB1B51E107C0AA1FE9
:10196000BB1FA617B70710F0A61BB70B881F991F40
:101970005A95A9F780959095BC01CD0108950F93D4
:101980001F93CF93DF938230910510F482E090E0B3
:10199000E091B804F091B90430E020E0B0E0A0E0BC
:1019A000309799F42115310509F44AC0281B390BE9
:1019B00024303105D8F58A819B816115710589F143
:1019C000FB0193838283FE0111C04081518102811A
:1019D000138148175907E0F04817590799F41097F1
:1019E00061F012960C93129713961C933296CF01C6
:1019F000DF91CF911F910F9108950093B804109338
:101A0000B904F4CF2115310551F04217530738F0CE
:101A1000A901DB019A01BD01DF01F801C1CFEF018E
:101A2000F9CF9093B9048093B804CDCFFE01E20FB3
:101A3000F31F819391932250310939832883D7CFA3
:101A40002091B6043091B704232B41F42091020277
:101A5000309103023093B7042093B6042091000222
:101A6000309101022115310541F42DB73EB7409167
:101A7000040250910502241B350BE091B604F0914D
:101A8000B704E217F307A0F42E1B3F0B2817390702
:101A900078F0AC014E5F5F4F2417350748F04E0FCA
:101AA0005F1F5093B7044093B604819391939FCFE7
:101AB000F0E0E0E09CCFCF93DF930097E9F0FC01EA
:101AC000329713821282A091B804B091B904ED014B
:101AD00030E020E01097A1F420813181820F931F24
:101AE0002091B6043091B7042817390709F061C076
:101AF000F093B704E093B604DF91CF910895EA0123
:101B0000CE17DF07E8F54A815B819E01411551053B
:101B1000B1F7E901FB83EA8349915991C40FD51FBD
:101B2000EC17FD0761F4808191810296840F951F67
:101B3000E90199838883828193819B838A83F0E082
:101B4000E0E012968D919C9113970097B9F52D9135
:101B50003C911197CD010296820F931F2091B604FC
:101B60003091B7042817390739F6309751F510929C
:101B7000B9041092B804B093B704A093B604BCCFD4
:101B8000D383C28340815181840F951FC817D90721
:101B900061F44E5F5F4F88819981480F591F5183CF
:101BA00040838A819B81938382832115310509F0CB
:101BB000B0CFF093B904E093B8049ECFFD01DC01EF
:101BC000C0CF13821282D7CFF894FFCF0000BA049F
:101BD00080003F1106011B220F0226222D223D22EA
:101BE00001113F2227220000000000000000000039
:101BF0000000000037228F0A39008F083920312079
:101C00003D02362289081E00302538007601760410
:101C10003F0033223F0433262D2281083E0030113D
:101C2000361440154009091100000000B3021302E8
:101C30004002000371024F026302000000000A0428
:101C4000DD032005B303D603C303B4030D0A0072FA
:101C50006973696E6720656467650066616C6C69AD
:101C60006E67206564676500696E69742064736BD4
:021C70007900F9
:020000040003F7
:10E000000D9489F10D94B2F10D94B2F10D94B2F129
:10E010000D94B2F10D94B2F10D94B2F10D94B2F1F0
:10E020000D94B2F10D94B2F10D94B2F10D94B2F1E0
:10E030000D94B2F10D94B2F10D94B2F10D94B2F1D0
:10E040000D94B2F10D94B2F10D94B2F10D94B2F1C0
:10E050000D94B2F10D94B2F10D94B2F10D94B2F1B0
:10E060000D94B2F10D94B2F10D94B2F10D94B2F1A0
:10E070000D94B2F10D94B2F10D94B2F10D94B2F190
:10E080000D94B2F10D94B2F10D94B2F10D94B2F180
:10E090000D94B2F10D94B2F10D94B2F10D94B2F170
:10E0A0000D94B2F10D94B2F10D94B2F10D94B2F160
:10E0B0000D94B2F10D94B2F10D94B2F10D94B2F150
:10E0C0000D94B2F10D94B2F10D94B2F10D94B2F140
:10E0D0000D94B2F10D94B2F10D94B2F10D94B2F130
:10E0E0000D94B2F141546D656761323536300041AF
:10E0F000726475696E6F206578706C6F72657220DE
:10E1000073746B3530305632206279204D4C530099
:10E11000426F6F746C6F616465723E004875683F52
:10E1200000436F6D70696C6564206F6E203D200048
:10E130004350552054797065202020203D20005FF9
:10E140005F4156525F415243485F5F3D2000415658
:10E1500052204C696243205665723D20004743437C
:10E160002056657273696F6E203D20004350552024
:10E1700049442020202020203D20004C6F7720663D
:10E18000757365202020203D20004869676820665F
:10E190007573652020203D200045787420667573D6
:10E1A00065202020203D20004C6F636B2066757336
:10E1B000652020203D20004D617220203720323024
:10E1C000313300312E362E3800342E332E350056A2
:10E1D00023202020414444522020206F7020636F70
:10E1E00064652020202020696E73747275637469E1
:10E1F0006F6E2061646472202020496E74657272B3
:10E20000757074006E6F20766563746F7200726A49
:10E210006D702020006A6D70200057686174207056
:10E220006F72743A00506F7274206E6F7420737541
:10E2300070706F72746564004D7573742062652030
:10E2400061206C6574746572002000577269747483
:10E25000696E672045450052656164696E672045B7
:10E26000450045452065727220636E743D00504F35
:10E27000525400303D5A65726F2061646472003FF1
:10E280003D43505520737461747300403D454550C3
:10E29000524F4D207465737400423D426C696E6B41
:10E2A000204C454400453D44756D70204545505215
:10E2B0004F4D00463D44756D7020464C415348001B
:10E2C000483D48656C70004C3D4C69737420492F83
:10E2D0004F20506F72747300513D51756974005234
:10E2E0003D44756D702052414D00563D73686F7707
:10E2F00020696E7465727275707420566563746FF0
:10E30000727300593D506F727420626C696E6B00BD
:10E310002A0011241FBECFEFD1E2DEBFCDBF01E046
:10E320000CBF12E0A0E0B2E0EEE1FDEF03E00BBFB6
:10E3300002C007900D92A030B107D9F712E0A0E01B
:10E34000B2E001C01D92AE30B107E1F70F9460F367
:10E350000D948DFE01E20EBF0FEF0DBF11241FBE05
:10E360000D9460F30D9400F020E030E040ED57E0B4
:10E3700005C0FA013197F1F72F5F3F4F2817390792
:10E38000C0F308959C01260F311DC901A0E0B0E043
:10E390002F5F3F4FABBFFC018791882361F08093D3
:10E3A000C6008091C00086FFFCCF8091C0008064D1
:10E3B0008093C000EACF08958DE08093C6008091DD
:10E3C000C00086FFFCCF8091C00080648093C000B5
:10E3D0008AE08093C6008091C00086FFFCCF8091C8
:10E3E000C00080648093C00008950F94C2F10F9420
:10E3F000DCF10895FC019081992359F09093C600B7
:10E400008091C00086FFFCCF8091C0008064809323
:10E41000C0003196992379F70895282F982F929567
:10E420009F70892F805D8A3308F0895F8093C600D2
:10E430008091C00086FFFCCF8091C00080648093F3
:10E44000C000822F8F70982F905D9A3308F0995FEB
:10E450009093C6008091C00086FFFCCF8091C000E1
:10E4600080648093C00008959C01FB01853691056E
:10E470001CF46330710594F0C90164E670E00F94F8
:10E480002EFE605D7F4F6093C6008091C00086FFC6
:10E49000FCCF8091C00080648093C0002B30310598
:10E4A00014F43297B4F0C90164E670E00F942EFEC4
:10E4B0006AE070E00F942EFE605D7F4F6093C600AF
:10E4C0008091C00086FFFCCF8091C0008064809363
:10E4D000C000C9016AE070E00F942EFEC0968093E0
:10E4E000C6008091C00086FFFCCF8091C000806490
:10E4F0008093C00008951F93182F8EE692EE60E07F
:10E500000F94C2F11093C6008091C00086FFFCCF2B
:10E510008091C00080648093C0000F94DCF11F9153
:10E5200008952F923F924F925F926F927F928F92B7
:10E530009F92AF92BF92CF92DF92EF92FF920F9392
:10E540001F93DF93CF93CDB7DEB762970FB6F894E2
:10E55000DEBF0FBECDBF382E622ECA01DB015C01CB
:10E560006D01772420E2222E2E010894411C511CBB
:10E570008BC081E0A81680E0B80681E0C80680E084
:10E58000D80628F0C601AA27BB270F940DF2BB2797
:10E59000AD2D9C2D8B2D0F940DF28A2D0F940DF225
:10E5A0002092C6008091C00086FFFCCF8091C00001
:10E5B00080648093C0009DE29093C6008091C0006B
:10E5C00086FFFCCF8091C00080648093C0002092C1
:10E5D000C6008091C00086FFFCCF8091C00080649F
:10E5E0008093C00019828601750188249924A1E0D6
:10E5F0003A1651F03A1620F0B2E03B1661F409C029
:10E600000BBFF701779007C0C7010F9477FE782EF4
:10E6100002C0F7017080872D0F940DF22092C60082
:10E620008091C00086FFFCCF8091C0008064809301
:10E63000C000872D8052F401EF70F0708F3520F408
:10E64000E40DF51D708204C0E40DF51D8EE280839B
:10E650000894E11CF11C011D111D0894811C911CE2
:10E6600090E18916910409F0C2CF80E190E0A0E02A
:10E67000B0E0A80EB91ECA1EDB1E198AC2010F9493
:10E68000FAF10F94DCF16A94662009F072CF629679
:10E690000FB6F894DEBF0FBECDBFCF91DF911F91B3
:10E6A0000F91FF90EF90DF90CF90BF90AF909F9031
:10E6B0008F907F906F905F904F903F902F90089534
:10E6C0002F923F924F925F926F927F928F929F9282
:10E6D000AF92BF92CF92DF92EF92FF920F931F9370
:10E6E000DF93CF93CDB7DEB7CD53D1400FB6F894BB
:10E6F000DEBF0FBECDBF01E20EBF0FEF0DBF94B75F
:10E70000F894A89514BE80916000886180936000A1
:10E7100010926000789493FF05C0E0910002F091A0
:10E7200001021995279A2F9A8091C00082608093E8
:10E73000C00080E18093C40088E18093C1000000A4
:10E74000EE24FF24870144E0A42EB12CCC24DD2448
:10E7500024C0C5010197F1F70894E11CF11C011DCB
:10E76000111D21E2E2162EE4F20620E0020720E06D
:10E77000120718F031E0C32ED12CC801B70127ECE5
:10E780003BE140E050E00F9441FE611571058105C9
:10E79000910519F485B1805885B98091C00087FD35
:10E7A00003C0C114D104A9F2A6014F5F5F4FC25E3E
:10E7B000DE4F59834883CE51D140C25EDE4F8881FF
:10E7C0009981CE51D140019711F00D9410FEC05D9A
:10E7D000DE4F19821882C053D14060E0C15DDE4F28
:10E7E0001882CF52D14088249924C35DDE4F19820C
:10E7F0001882CD52D140C05EDE4F188219821A8233
:10E800001B82C052D140CE5CDE4F188219821A8220
:10E810001B82C253D140EE24FF2487010BBFF701B6
:10E8200007911691C45CDE4F19830883CC53D14005
:10E830000D940BFEC25EDE4F28813981CE51D1404E
:10E840002130310509F52091C600C25EDE4F1982E4
:10E850001882CE51D14022C02F5F3F4F4F4F5F4FA4
:10E86000213082E138078AE7480780E0580780F0C6
:10E87000C45CDE4FE881F981CC53D140EF5FFF4F9C
:10E8800019F0EE27FF27099420E030E040E050E047
:10E890008091C00087FFE0CF2091C600C35DDE4FAE
:10E8A00048815981CD52D1404F5F5F4FC35DDE4FEC
:10E8B00059834883CD52D140213209F063C64A3092
:10E8C000510508F05FC60894811C911C53E0851621
:10E8D000910409F059C600E010E018C081E280936D
:10E8E000C6008091C00086FFFCCF8091C00080648C
:10E8F0008093C0002F5F3F4F2931310579F70F9486
:10E90000DCF10F5F1F4F0530110519F020E030E0FA
:10E91000E5CF10920A0210920B0210920C02109294
:10E920000D02109206021092070210920802109235
:10E930000902109202021092030210920402109235
:10E9400005028FEE90EE60E00F94F5F180E191EE1C
:10E9500060E00F94C2F18091C00087FFFCCF9091DE
:10E96000C600903608F09F759032B8F09093C600BC
:10E970008091C00086FFFCCF8091C00080648093AE
:10E98000C000A0E2A093C6008091C00086FFFCCF2B
:10E990008091C00080648093C000983409F4D7C18E
:10E9A0009934B8F4923409F459C1933458F490333B
:10E9B00019F1903308F4E3C59F33A1F1903409F0C5
:10E9C000DEC5BDC0953409F470C1963409F0D7C5D1
:10E9D00098C1923509F42BC2933538F49C3409F46C
:10E9E000F5C1913509F0CBC518C2963509F445C279
:10E9F000993509F0C4C567C483E792EE62E00F94CD
:10EA0000F5F110920602109207021092080210927D
:10EA1000090210920A0210920B0210920C0210923C
:10EA20000D0213C18FE792EE62E00F94F5F18FEEC5
:10EA300090EE60E00F94F5F181E291EE60E00F94CA
:10EA4000C2F187EB91EE60E00F94F5F180E391EE77
:10EA500060E00F94C2F184EE90EE60E00F94F5F167
:10EA60008FE391EE60E00F94C2F186E090E061E008
:10EA700070E00F9434F20F94DCF18DE591EE60E0DC
:10EA80000F94C2F189EC91EE60E00F94F5F18EE401
:10EA900091EE60E00F94C2F183EC91EE60E00F9490
:10EAA000F5F18CE691EE60E00F94C2F18EE10F94E7
:10EAB0000DF288E90F940DF281E00F940DF20F949E
:10EAC000DCF18BE791EE60E00F94C2F119E0E0E039
:10EAD000F0E010935700E4918E2F0F940DF20F94F5
:10EAE000DCF18AE891EE60E00F94C2F1E3E0F0E03F
:10EAF00010935700E4918E2F0F940DF20F94DCF1D8
:10EB000089E991EE60E00F94C2F1E2E0F0E0109349
:10EB10005700E4918E2F0F940DF20F94DCF188EAE8
:10EB200091EE60E00F94C2F1E1E0F0E01093570045
:10EB30001491812F0F940DF20F94DCF107CF8BE825
:10EB400092EE62E00F94F5F18BE492EE60E00F94A8
:10EB5000F5F10F94DCF100E010E019C0C8016F2D51
:10EB60000F947FFEFF2031F489E492EE60E00F9471
:10EB7000C2F10BC0F092C6008091C00086FFFCCFAE
:10EB80008091C00080648093C0000F5F1F4FC80158
:10EB900081519F41A0E0B0E0ABBFFC01F790BAE229
:10EBA000FB1621F0E2E000301E07C1F60F94DCF105
:10EBB0000F94DCF187E592EE60E00F94F5F10F948D
:10EBC000DCF1CC24DD2400E010E01EC0C8010F946D
:10EBD00077FEF82E882331F489E492EE60E00F94FA
:10EBE000C2F10BC08093C6008091C00086FFFCCFAD
:10EBF0008091C00080648093C000FE1419F00894D6
:10EC0000C11CD11C0F5F1F4FC80181519F41A0E063
:10EC1000B0E0ABBFFC01E790FAE2EF1621F022E092
:10EC20000030120799F60F94DCF10F94DCF182E6C4
:10EC300092EE60E00F94C2F1C60161E070E00F94C3
:10EC400034F20F94DCF10F94DCF110920202109276
:10EC50000302109204021092050278CE89E992EE26
:10EC600062E00F94F5F1279A2F9A16C02F9880E052
:10EC700090E0E0EDF7E03197F1F7019684369105E9
:10EC8000C1F72F9A80E090E0E0EDF7E03197F1F7DF
:10EC9000019684369105C1F78091C00087FFE6CFC9
:10ECA0008091C00087FFFCCF64C485EA92EE62E0E9
:10ECB0000F94F5F140910202509103026091040219
:10ECC0007091050281E020E10F9491F2809102029F
:10ECD00090910302A0910402B091050280509F4FD1
:10ECE000AF4FBF4F8093020290930302A0930402A0
:10ECF000B093050280509041A040B04008F426CE69
:10ED0000A4CF83EB92EE62E00F94F5F140910602FE
:10ED100050910702609108027091090280E020E1A1
:10ED20000F9491F28091060290910702A09108023F
:10ED3000B091090280509F4FAF4FBF4F80930602A2
:10ED400090930702A0930802B0930902FFCD80ECD4
:10ED500092EE62E00F94F5F183E792EE60E00F949B
:10ED6000F5F18FE792EE60E00F94F5F18BE892EE0B
:10ED700060E00F94F5F189E992EE60E00F94F5F10F
:10ED800085EA92EE60E00F94F5F183EB92EE60E09D
:10ED90000F94F5F180EC92EE60E00F94F5F187ECC2
:10EDA00092EE60E00F94F5F188ED92EE60E00F9442
:10EDB000F5F18FED92EE60E00F94F5F18AEE92EEB0
:10EDC00060E00F94F5F183E093EEBDCD87EC92EE19
:10EDD00062E00F94F5F181E40F947BF282E40F94EA
:10EDE0007BF283E40F947BF284E40F947BF285E45E
:10EDF0000F947BF286E40F947BF287E40F947BF20E
:10EE000088E40F947BF28AE40F947BF28BE40F94F6
:10EE10007BF28CE40F947BF299CD88ED92EE62E068
:10EE20000F94F5F1772473948824992409C48FED05
:10EE300092EE62E00F94F5F140910A0250910B02BC
:10EE400060910C0270910D0282E020E10F9491F22A
:10EE500080910A0290910B02A0910C02B0910D02D8
:10EE600080509F4FAF4FBF4F80930A0290930B0289
:10EE7000A0930C02B0930D0269CD8AEE92EE62E08F
:10EE80000F94F5F184EE90EE60E00F94F5F18FECC5
:10EE900091EE60E00F94F5F1662477244301CC5D98
:10EEA000DE4F19821882C452D140D401C301B695F5
:10EEB000A79597958795CA5DDE4F88839983AA8326
:10EEC000BB83C652D140CC5DDE4FA881B981C4520C
:10EED000D1401196CC5DDE4FB983A883C452D14096
:10EEE000CD0162E070E00F9434F2B0E2B093C6005E
:10EEF0008091C00086FFFCCF8091C0008064809329
:10EF0000C000EDE2E093C6008091C00086FFFCCF18
:10EF10008091C00080648093C000F0E2F093C6004E
:10EF20008091C00086FFFCCF8091C00080648093F8
:10EF3000C000CA5DDE4FE880F9800A811B81C6529D
:10EF4000D140BB27A12F902F8F2D0F940DF2CA5DBA
:10EF5000DE4F8881C652D1400F940DF2B0E2FB2EF5
:10EF6000F092C6008091C00086FFFCCF8091C00067
:10EF700080648093C0000DE30093C6008091C000C0
:10EF800086FFFCCF8091C00080648093C00010E2B7
:10EF90001093C6008091C00086FFFCCF8091C00016
:10EFA00080648093C0008BBEF3012791C65DDE4F65
:10EFB0002883CA52D140A22EBB24CC24DD2408943D
:10EFC000611C711C811C911C8BBEF3018791282E42
:10EFD0003324442455240894611C711C811C911C09
:10EFE0008BBEF3013791C55DDE4F3883CB52D140E4
:10EFF0000894611C711C811C911C8BBEF30147910C
:10F00000C45DDE4F4883CC52D140ADEFEA2EAFEF66
:10F01000FA2EAFEF0A2FAFEF1A2F6E0C7F1C801E57
:10F02000911E142D032DF22CEE24EA0CFB1C0C1D5A
:10F030001D1D0F940DF220E22093C6008091C000A8
:10F0400086FFFCCF8091C00080648093C000C65DC5
:10F05000DE4F8881CA52D1400F940DF230E23093D6
:10F06000C6008091C00086FFFCCF8091C000806404
:10F070008093C000C45DDE4F8881CC52D1400F9494
:10F080000DF240E24093C6008091C00086FFFCCFA5
:10F090008091C00080648093C000C55DDE4F888190
:10F0A000CB52D1400F940DF250E25093C6008091A4
:10F0B000C00086FFFCCF8091C00080648093C000B8
:10F0C0008FEFE8168FEFF80680E0080780E018075A
:10F0D00031F484E092EE60E00F94C2F1DFC0D80119
:10F0E000C7018070907CA070B0708050904CA040A0
:10F0F000B040D1F52FEF3FE340E050E0E222F322B1
:10F1000004231523CA5DDE4FA880B980CA80DB8046
:10F11000C652D140AE0CBF1CC01ED11EAA0CBB1CD7
:10F12000CC1CDD1C8EE092EE60E00F94C2F1BB2798
:10F13000A12F902F8F2D0F940DF28E2D0F940DF285
:10F1400030E23093C6008091C00086FFFCCF8091F2
:10F15000C00080648093C0004EE34093C60080915D
:10F16000C00086FFFCCF87C08EE09EEFA0E0B0E03D
:10F17000E822F9220A231B239CE0E91694E9F90608
:10F1800090E0090790E0190709F088C0C45DDE4FE0
:10F19000A881CC52D140EA2EFF2400E010E0102FCD
:10F1A0000F2DFE2CEE24C55DDE4FB881CB52D14031
:10F1B000EB0EF11C011D111DD601C501817090706F
:10F1C000A070B070DC0199278827E80EF91E0A1F8D
:10F1D0001B1F20EF30E040E050E0A222B322C42207
:10F1E000D52241E1AA0CBB1CCC1CDD1C4A95D1F7F1
:10F1F000EA0CFB1C0C1D1D1D81E090E0A0E0B0E0BE
:10F20000282239224A225B2235E1220C331C441C7D
:10F21000551C3A95D1F7E20CF31C041D151D57013E
:10F220006801AA0CBB1CCC1CDD1C85E192EE60E0E1
:10F230000F94C2F1C801AA27BB270F940DF2BB2778
:10F24000A12F902F8F2D0F940DF28E2D0F940DF274
:10F2500090E29093C6008091C00086FFFCCF809121
:10F26000C00080648093C000AEE3A093C60080918C
:10F27000C00086FFFCCF8091C00080648093C000F6
:10F28000C601AA27BB270F940DF2BB27AD2D9C2DDD
:10F290008B2D0F940DF28A2D0F940DF20F94DCF14B
:10F2A000CC5DDE4FE881F981C452D140F99709F471
:10F2B0004DCBF4E0EF2EF12C012D112D6E0C7F1CA7
:10F2C000801E911EF2CD83E093EE62E00F94F5F183
:10F2D0008AE192EE60E00F94C2F18091C00087FF56
:10F2E000FCCF1091C6001F751093C6008091C0001E
:10F2F00086FFFCCF8091C00080648093C0000F9493
:10F30000DCF1812F81548A3108F036C1163409F4BA
:10F3100095C0173490F4133409F44EC0143430F40B
:10F320001134F1F0123409F01DC130C0143409F465
:10F3300059C0153409F016C16BC01A3409F4C4C0A1
:10F340001B3438F4173409F48FC0183409F00AC19B
:10F35000A1C01B3409F4D2C01C3409F003C1E8C0B9
:10F360008FEF81B90DC082B1809582B980E090E0C5
:10F37000E0EDF7E03197F1F70196883C9105C1F790
:10F380008091C00087FFEFCF12B8EFC08FEF84B934
:10F390000DC085B1809585B980E090E0E0EDF7E0A3
:10F3A0003197F1F70196883C9105C1F78091C00033
:10F3B00087FFEFCF15B8D9C08FEF87B90DC088B1DF
:10F3C000809588B980E090E0E0EDF7E03197F1F7C3
:10F3D0000196883C9105C1F78091C00087FFEFCF6F
:10F3E00018B8C3C08FEF8AB90DC08BB180958BB9A7
:10F3F00080E090E0E0EDF7E03197F1F70196883C8E
:10F400009105C1F78091C00087FFEFCF1BB8ADC059
:10F410008FEF8DB90DC08EB180958EB980E090E0F0
:10F42000E0EDF7E03197F1F70196883C9105C1F7DF
:10F430008091C00087FFEFCF1EB897C08FEF80BBD1
:10F440000DC081B3809581BB80E090E0E0EDF7E0F6
:10F450003197F1F70196883C9105C1F78091C00082
:10F4600087FFEFCF11BA81C08FEF83BB0DC084B38C
:10F47000809584BB80E090E0E0EDF7E03197F1F714
:10F480000196883C9105C1F78091C00087FFEFCFBE
:10F4900014BA6BC08FEF809301010FC080910201FD
:10F4A00080958093020180E090E0E0EDF7E03197F5
:10F4B000F1F70196883C9105C1F78091C00087FF64
:10F4C000EDCF1092020151C08FEF809304010FC065
:10F4D0008091050180958093050180E090E0E0ED4A
:10F4E000F7E03197F1F70196883C9105C1F78091DB
:10F4F000C00087FFEDCF1092050137C08FEF8093DA
:10F5000007010FC08091080180958093080180E079
:10F5100090E0E0EDF7E03197F1F70196883C910536
:10F52000C1F78091C00087FFEDCF109208011DC088
:10F530008FEF80930A010FC080910B01809580931B
:10F540000B0180E090E0E0EDF7E03197F1F70196F4
:10F55000883C9105C1F78091C00087FFEDCF1092E4
:10F560000B0103C085E292EEEEC98091C00087FFD7
:10F57000FCCF8091C600EAC988E392EEE4C98CE131
:10F5800091EEE1C988249924933011F1943028F444
:10F59000913089F09230B8F408C0953061F195301F
:10F5A000F0F0963009F048C043C02B3109F042C951
:10F5B00091E06BE13FC96227C15DDE4F2883CF52E6
:10F5C000D14092E037C9B22FA0E0622793E032C960
:10F5D000822F90E0A82BB92B622794E02BC92E3004
:10F5E00009F039C3622795E0C05DDE4F19821882A9
:10F5F000C053D1401FC9E1E0F0E0EC0FFD1FC05D3A
:10F60000DE4F08811981C053D140E00FF11F2083E4
:10F610000F5F1F4FC05DDE4F19830883C053D14079
:10F6200062270A171B0709F005C9D80196E002C92D
:10F63000261709F010C303C0973009F0FBC87724E0
:10F640009981933109F412C19431C8F4963009F4C8
:10F65000D8C0973050F4923009F406C1933009F4C1
:10F660006DC0913009F059C253C0913109F477C08F
:10F67000923108F0BBC0903109F04FC2F5C098310B
:10F6800009F487C0993150F4953109F4EFC09531F0
:10F6900008F4C6C1963109F040C2C2C19A3109F4DA
:10F6A0006CC09A3108F491C09B3109F45BC09D3164
:10F6B00009F033C29D81903359F48F81882311F46E
:10F6C0009EE11CC0813011F091E018C098E916C08D
:10F6D000892F807591F0903539F4E0E0F0E089E011
:10F6E0008093570094910AC0983539F4E3E0F0E034
:10F6F00089E080935700949101C090E01A821B82A8
:10F700008D818C831D829E831F8227E030E009C299
:10F710001A8288E08B8381E48C8386E58D8382E581
:10F720008E8389E48F8383E5888780E589878FE5E9
:10F730008A8782E38B872BE030E0F3C18A818139AD
:10F7400041F0823941F0803911F48FE005C080E04A
:10F7500003C082E001C08AE01A828B8344C0772410
:10F76000739482C08D81882311F48EE12CC0813086
:10F7700011F081E028C088E926C01A82E1E0F0E0BB
:10F7800089E08093570084918B831C8224E030E0D1
:10F79000C8C18B81803589F48C81883039F4E2E0EE
:10F7A000F0E089E08093570084910DC0E0E0F0E044
:10F7B00089E080935700849106C0E3E0F0E089E09F
:10F7C0008093570084911A82DFCF8D81836C99E0FA
:10F7D000E1E0F0E0082E90935700E89507B600FCB2
:10F7E000FDCF1A821B8223E030E09BC180EC8A832C
:10F7F000CE5CDE4F188219821A821B82C253D1401E
:10F800008EC18A8190E0A0E0B0E0582F44273327D2
:10F8100022278B8190E0A0E0B0E0DC0199278827C7
:10F82000282B392B4A2B5B2B8D8190E0A0E0B0E098
:10F83000282B392B4A2B5B2B8C8190E0A0E0B0E089
:10F84000BA2FA92F982F8827282B392B4A2B5B2BCF
:10F85000220F331F441F551FC05EDE4F288339839C
:10F860004A835B83C052D1401A8259C13A81C95C34
:10F87000DE4F3883C753D140CA5CDE4F1882C6536F
:10F88000D1408B81C82EDD24CA5CDE4F488159816E
:10F89000C653D140C42AD52A933109F082C0CE5C28
:10F8A000DE4F88819981AA81BB81C253D1408050AB
:10F8B000904CA340B04030F583E0CE5CDE4FE88052
:10F8C000F9800A811B81C253D140F70100935B008C
:10F8D00080935700E89507B600FCFDCFCE5CDE4F65
:10F8E000088119812A813B81C253D14000501F4FAA
:10F8F0002F4F3F4FCE5CDE4F088319832A833B8313
:10F90000C253D140C05EDE4F488159816A817B81FC
:10F91000C052D140DE011B9631E08C9111962C91A2
:10F9200011971296C75CDE4F2883C953D140C85C3B
:10F93000DE4F1882C853D14090E0C85CDE4FE881AA
:10F94000F981C853D1408E2B9F2B0C01FA01609393
:10F950005B0030935700E89511244E5F5F4F6F4F67
:10F960007F4F0EEFE02E0FEFF02ECE0CDF1CC114F8
:10F97000D10499F685E0C05EDE4F088119812A81A5
:10F980003B81C052D140F80120935B008093570027
:10F99000E89507B600FCFDCF81E180935700E8951C
:10F9A00035C0C05EDE4F88819981AA81BB81C0527B
:10F9B000D140B695A795979587957C018601ABE0D8
:10F9C000AA2EB12CAC0EBD1E0BC0D5016D915D01F0
:10F9D000C7010F947FFE0894E11CF11C01501040F8
:10F9E0000115110591F7A60160E070E0440F551F65
:10F9F000661F771FC05EDE4FE880F9800A811B8199
:10FA0000C052D1404E0D5F1D601F711F1A82C05E33
:10FA1000DE4F488359836A837B83C052D1407FC0C5
:10FA2000FA80C55CDE4FF882CB53D140C65CDE4F16
:10FA30001882CA53D1408B81C82EDD24C65CDE4FAC
:10FA400008811981CA53D140C02AD12A1A828981DA
:10FA5000BE016D5F7F4F843121F59601C05EDE4FA0
:10FA6000E880F9800A811B81C052D1400BBFF701A9
:10FA700087919691DB018C9311969C936E5F7F4FDB
:10FA8000D801C7010296A11DB11DC05EDE4F88835B
:10FA90009983AA83BB83C052D14022503040F1F6F3
:10FAA00036C0C05EDE4F288139814A815B81C052F9
:10FAB000D1400894C108D108760100E010E0089414
:10FAC000C11CD11C0894E11CF11C011D111DE20E8A
:10FAD000F31E041F151F21BDBB27A52F942F832FB5
:10FAE00082BD2F5F3F4F4F4F5F4FF89A80B5DB01CC
:10FAF0008D93BD012E153F054007510761F7C05E8C
:10FB0000DE4F288339834A835B83C052D1409601FC
:10FB10002D5F3F4FFB01108204C080EC8A8322E0FE
:10FB200030E08BE18093C6008091C00086FFFCCF5F
:10FB30008091C00080648093C000C15DDE4FF88179
:10FB4000CF52D140F093C6008091C00086FFFCCF19
:10FB50008091C00080648093C000432F3093C60022
:10FB60008091C00086FFFCCF8091C00080648093AC
:10FB7000C000922F2093C6008091C00086FFFCCF6A
:10FB80008091C00080648093C0008EE08093C600A6
:10FB90008091C00086FFFCCF8091C000806480937C
:10FBA000C00065E1C15DDE4FE880CF52D1406E25D7
:10FBB00069276427FE01319610C090819093C6009A
:10FBC0008091C00086FFFCCF31968091C000806498
:10FBD0008093C0006927215030402115310569F715
:10FBE0006093C6008091C00086FFFCCF8091C0006A
:10FBF00080648093C00085B1805885B9772081F4F6
:10FC0000C15DDE4F0881CF52D1400F5FC15DDE4F35
:10FC10000883CF52D14090E0A0E0B0E00D941AF4F8
:10FC200027982F9880E090E020ED37E0F901319798
:10FC3000F1F7019684369105C9F700008091C00064
:10FC40008D7F8093C00081E180935700E895EE2777
:10FC5000FF270994FFCF90E00D941AF497FB092E2B
:10FC600007260AD077FD04D02ED006D000201AF443
:10FC7000709561957F4F0895F6F7909581959F4F08
:10FC80000895A1E21A2EAA1BBB1BFD010DC0AA1FDD
:10FC9000BB1FEE1FFF1FA217B307E407F50720F0F5
:10FCA000A21BB30BE40BF50B661F771F881F991F70
:10FCB0001A9469F760957095809590959B01AC01B9
:10FCC000BD01CF010895AA1BBB1B51E107C0AA1FAC
:10FCD000BB1FA617B70710F0A61BB70B881F991FED
:10FCE0005A95A9F780959095BC01CD010895F99991
:10FCF000FECF92BD81BDF89A992780B50895262F31
:10FD0000F999FECF1FBA92BD81BD20BD0FB6F89400
:0EFD1000FA9AF99A0FBE01960895F894FFCF63
:00000001FF
