:10000000E8C0000017C1000015C100000C944409AD
:100010000C945B090FC100000DC100000BC1000072
:1000200009C1000007C100000C94230903C10000AE
:1000300001C10000FFC00000FDC00000FBC00000C7
:10004000F9C00000F7C00000F5C00000F3C00000D8
:10005000F1C00000EFC00000EDC0000087C7000045
:10006000E9C00000E7C00000E5C00000E3C00000F8
:10007000E1C00000DFC00000DDC00000DBC0000008
:10008000D9C00000D7C00000D5C00000D3C0000018
:10009000D1C00000CFC00000CDC00000B1C700003B
:1000A000C9C00000C7C00000C5C00000C3C0000038
:1000B000C1C00000BFC00000BDC00000BBC0000048
:1000C000B9C00000B7C00000B5C0000019C70000EB
:1000D000EEC60000AFC00000ADC00000ABC0000025
:1000E000A9C0000000002200250028002B002E00DF
:1000F0003100340002010000050108010B01050573
:100100000505070508080808020202020A0A08088D
:1001100004040404010101010101010103030303BB
:1001200003030303040707070C0C0C0C0C0C0C0C4A
:100130000202020206060606060606060B0B0B0B5B
:100140000B0B0B0B01021020200808102040102080
:10015000408002010201080402010102040810208B
:100160004080804020100804020180040201804089
:1001700020100804020108040201010204081020F2
:100180004080010204081020408000000A0B020990
:100190000C0D0E0807030401000000000000000021
:1001A000000000000000000000000000000000004F
:1001B000000000000000121110000000000000000C
:1001C000000000000000000000000000000000002F
:1001D000B40911241FBECFEFD1E2DEBFCDBF00E0D6
:1001E0000CBF12E0A0E0B2E0E0E4FBE100E00BBFF6
:1001F00002C007900D92AC3CB107D9F724E0ACECFB
:10020000B2E001C01D92A634B207E1F710E0C9EEDA
:10021000D0E000E006C021970109802FFE010E9476
:10022000710CC83ED10780E00807A9F70E94ED09CC
:100230000C949E0DE5CE08950895AF92BF92CF9293
:10024000DF92EF92FF920F931F93CF93DF936C0196
:100250007B018B01040F151FEB015E01AE18BF0877
:10026000C017D10759F06991D601ED91FC91019029
:10027000F081E02DC6011995892B79F7C501DF9131
:10028000CF911F910F91FF90EF90DF90CF90BF9093
:10029000AF900895FC01538D448D252F30E0842FBD
:1002A00090E0821B930B541710F0CF96089501979E
:1002B0000895FC01918D828D981761F0A28DAE0F8B
:1002C000BF2FB11D5D968C91928D9F5F9F73928F12
:1002D00090E008958FEF9FEF0895FC01918D828D3E
:1002E000981731F0828DE80FF11D858D90E008950B
:1002F0008FEF9FEF0895FC01918D228D892F90E063
:10030000805C9F4F821B91098F739927089589E91B
:1003100093E0F1DF21E0892B09F420E0822F08959A
:10032000FC01A48DA80FB92FB11DA35ABF4F2C916A
:10033000848D90E001968F739927848FA689B78961
:100340002C93A089B1898C91837080648C93938D58
:10035000848D981306C00288F389E02D80818F7DFB
:1003600080830895EF92FF920F931F93CF93DF93B3
:10037000EC0181E0888F9B8D8C8D98131AC0E889E1
:10038000F989808185FF15C09FB7F894EE89FF89B0
:100390006083E889F98980818370806480839FBF4E
:1003A00081E090E0DF91CF911F910F91FF90EF904E
:1003B0000895F62E0B8D10E00F5F1F4F0F7311275E
:1003C000E02E8C8D8E110BC00FB607FCFACFE8899A
:1003D000F989808185FFF5CFCE01A2DFF2CFEB8DC9
:1003E000EC0FFD2FF11DE35AFF4FF0829FB7F894F9
:1003F0000B8FEA89FB8980818062D0CFCF93DF9316
:10040000EC01888D8823B1F0AA89BB89E889F98934
:100410008C9185FD03C0808186FD0CC00FB607FC62
:10042000F7CF8C9185FFF2CF808185FFEDCFCE0194
:1004300077DFEACFDF91CF91089580E090E0892BBC
:1004400049F080E090E0892B29F00E9400008111A2
:100450000E94000080E090E0892B49F080E090E06D
:10046000892B29F00E94000081110E94000080E089
:1004700090E0892B21F04BDF81110E94000080E089
:1004800090E0892B49F080E090E0892B29F00E94D0
:10049000000081110C9400000895282F30E0F9012C
:1004A000E657FE4F9491F901EC5BFE4F44912250C8
:1004B0003F4FF9012491222309F435C0992311F10A
:1004C00091509231F8F4E92FF0E08827E559FD4F7B
:1004D0008F4F0C94710C9C02A0027D029402980232
:1004E0008202A302A902AD02B302B702BB02C1029B
:1004F000C5028202C902CF02D302809180008F77A9
:1005000080938000E22FF0E0EE0FFF1FEC51FF4FD1
:10051000A591B4918FB7F894EC91611148C04095C2
:100520004E234C938FBF0895809180008F7DE8CF3C
:1005300080918000877FE4CF84B58F7784BDE2CF40
:1005400084B58F7DFBCF8091B0008F778093B00012
:10055000D9CF8091B0008F7DF9CF809190008F77B7
:1005600080939000CFCF809190008F7DF9CF8091C4
:100570009000877FF5CF8091A0008F778093A000B7
:10058000C1CF8091A0008F7DF9CF8091A000877F9F
:10059000F5CF809120018F7780932001B3CF809198
:1005A00020018F7DF9CF80912001877FF5CF4E2BE1
:1005B000B8CF3FB7F8948091860390918703A091BC
:1005C0008803B091890326B5A89B05C02F3F19F079
:1005D0000196A11DB11D3FBFBA2FA92F982F8827C3
:1005E000BC01CD01620F711D811D911D42E0660F9E
:1005F000771F881F991F4A95D1F708958F929F9270
:10060000AF92BF92CF92DF92EF92FF92D2DF4B0177
:100610005C0184E1C82ED12CE12CF12CCADF6819D1
:1006200079098A099B09683E734081059105B0F3F9
:1006300021E0C21AD108E108F10888EE880E83E0B3
:10064000981EA11CB11CC114D104E104F10431F7BE
:10065000FF90EF90DF90CF90BF90AF909F908F90E2
:10066000089520913703260F3327331F2132310598
:10067000ECF420915B03FC0190E080E0243069F011
:1006800082E00895A09137032191AC01495E5C4F4F
:10069000A40FB52FB11D2C930196861798F3809166
:1006A0003703680F6093370380E0089581E0089571
:1006B00010925B0381E080935D0310925C0361E024
:1006C00084E1EBDE61E085E1E8DEE9EBF0E08081EA
:1006D0008E7F808380818D7F808388E48093B800C3
:1006E00085E48093BC000895CF93DF9391E09093CD
:1006F00016038823A1F0C091B800D091BA00809170
:10070000BC008A7B8093BC0060E084E1C6DE60E0D0
:1007100085E1C3DECDDFD093BA00C093B800DF918E
:10072000CF9108950895E0918F0380918E03E8178B
:1007300030F4F0E0EF50FD4F808190E008958FEFAE
:100740009FEF089590918F0380918E032FEF3FEFDD
:10075000981748F4E92FF0E0EF50FD4F208130E08A
:100760009F5F90938F03C901089580918E039091AC
:100770008F03891B990B0895CF92DF92EF92FF921E
:100780000F931F93CF93DF937C01CB018A012091BC
:100790009303222389F0EB016B01C40ED51ECC1507
:1007A000DD0561F06991D701ED91FC910190F08137
:1007B000E02DC7011995F3CF642F53DFC801DF91F6
:1007C000CF911F910F91FF90EF90DF90CF90089500
:1007D000CF93DF931F92CDB7DEB769832091930348
:1007E0002223F9F020919003203258F021E030E0EC
:1007F000FC013383228390E080E00F90DF91CF9162
:10080000089580919103E82FF0E0EF52FD4F998118
:1008100090838F5F809391038093900381E090E0B9
:10082000ECCF61E0CE0101961CDFF8CFCF92DF92D2
:10083000EF92FF920F931F93CF93DF93D09190038A
:1008400081E0D13208F096C0C0919203B2DE6B0114
:100850007C0180915B03811169C082E080935B031E
:1008600081E080935D038FEF80935A0310927F03A2
:10087000D0937E03A1EDB2E0EEE5F3E080E0D81383
:1008800088C01092800380918003CC0FC82BC09346
:10089000800380915C03813009F07FC010925C037B
:1008A00088DE6B017C01809180038093BB00809186
:1008B000120390911303A0911403B0911503892B97
:1008C0008A2B8B2B99F075DE009112031091130384
:1008D00020911403309115036C197D098E099F092D
:1008E000061717072807390708F440C08091BC0095
:1008F00083FDD9CF85EC8093BC005BDE6B017C016E
:1009000080915B03823009F44AC080915A038F3F83
:1009100009F466C080915A03803209F463C0809163
:100920005A03803309F460C084E024C0809112032C
:1009300090911303A0911403B0911503892B8A2B76
:100940008B2B09F486CF35DE00911203109113032F
:1009500020911403309115036C197D098E099F09AC
:10096000061717072807390708F073CF809111037E
:10097000BBDE85E0109291031092900310929303D6
:10098000DF91CF911F910F91FF90EF90DF90CF906B
:1009900008959D9191938F5F72CF85EEACCF80913A
:1009A000120390911303A0911403B0911503892BA6
:1009B0008A2B8B2B09F4A4CFFCDD0091120310913C
:1009C000130320911403309115036C197D098E09CE
:1009D0009F09061717072807390708F091CFC6CFD8
:1009E00080E0C8CF82E0C6CF83E0C4CF90E080E053
:1009F0000895DC01ED91FC910190F081E02D1994B6
:100A0000EF92FF920F931F93CF93DF93EC018C0132
:100A10000F591F4FD8018D919C91FE01E15AFF4F54
:100A2000208131E03093930320939203109291033D
:100A30001092900370E060E0DCDF7E01B7E2EB0E25
:100A4000F11CE796F80180819181D7016D917D01BC
:100A5000DC01ED91FC910190F081E02D1995EC16EF
:100A6000FD0681F7F80180819181DF91CF911F917F
:100A70000F91FF90EF90DACEFB0101900020E9F793
:100A80003197AF01461B570BDC01ED91FC910280C1
:100A9000F381E02D19948F929F92AF92BF92EF92C3
:100AA000FF920F931F93CF93DF93CDB7DEB7A1973C
:100AB0000FB6F894DEBF0FBECDBF7C01FA01CB01AB
:100AC00019A2223008F42AE08E010F5D1F4F822EFA
:100AD000912CB12CA12CBF01A5019401E0D6F90104
:100AE000CA016A3004F5605DD8016E938D01232B35
:100AF000242B252B81F790E080E0109719F0BD01A1
:100B0000C701BADFA1960FB6F894DEBF0FBECDBF06
:100B1000DF91CF911F910F91FF90EF90BF90AF9019
:100B20009F908F900895695CDFCF4F925F926F9294
:100B30007F928F929F92AF92BF92CF92DF92EF926D
:100B4000FF920F931F93CF93DF93EC01FC01E05AC8
:100B5000FF4F10827C0181E6E80EF11CD7018D91D8
:100B60009C918E01015A1F4FF801208131E0309392
:100B7000930320939203109291031092900360E4E8
:100B800070E037DFD7018D919C9150DEF801108124
:100B900010DD4B015C0180915B03811163C081E03A
:100BA00080935B0380935D039FEF90935A031092B1
:100BB0007F0395E090937E03809380038091800370
:100BC000110F182B1093800380915C03813009F082
:100BD000A0C010925C03EDDC4B015C0180918003AE
:100BE0008093BB008091120390911303A091140392
:100BF000B0911503892B8A2B8B2B99F0DADC0091AD
:100C000012031091130320911403309115036819F6
:100C100079098A099B09061717072807390708F475
:100C200041C08091BC0083FDD9CF85EC8093BC008E
:100C3000C0DC4B015C0180915B03813009F46BC027
:100C400080917F03863008F087C080917F03AEE5F6
:100C5000B3E0E1EFF2E090E0981741F12D9121939C
:100C60009F5FFACF8091120390911303A091140318
:100C7000B0911503892B8A2B8B2B09F48CCF99DC2F
:100C8000409012035090130360901403709015036A
:100C9000681979098A099B09461657066806790674
:100CA00008F079CF809111031FDD80E010928F034F
:100CB00080938E0310E000E0D7018D919C91DC01C0
:100CC000ED91FC910084F185E02D19956C01892B43
:100CD00009F044C07E01B3E6EB0EF11CF701808100
:100CE00091810C151D0509F463C0EC85FD85EC0DA3
:100CF000FD1D408150E070E060E02AE0CCDE60EA5B
:100D000072E0D7018D919C91B7DEBFEFCB1ADB0A61
:100D1000E5CF85EE8BCF8091120390911303A091C4
:100D20001403B0911503892B8A2B8B2B09F483CFE5
:100D300040DC0091120310911303209114033091B1
:100D40001503681979098A099B09061717072807E7
:100D5000390708F070CFA6CF86E079CFF701808100
:100D60009181DC01ED91FC910284F385E02D1995D0
:100D70008295282F30E0C90195958795959587959F
:100D80008373220F331F220F331F2C7C822B90E0A2
:100D9000EC85FD85E00FF11F9C01359527952575A4
:100DA000880F991F8A7A822B80830F5F1F4F84CF11
:100DB00062EA72E061DE65EA72E0F70180819181AA
:100DC0005BDED7010D911C91E889F989408150E0E3
:100DD00070E060E02AE0C8015EDE62EA72E0C8010D
:100DE0004BDEE889F98980819DA9892B8DABEC893F
:100DF000FD8990812BA9922B292F209528232DAB9B
:100E0000809589238BAB81E18EAB1FAAE88DF98D8C
:100E10008081882311F01DAA1BAA81E090E0DF9158
:100E2000CF911F910F91FF90EF90DF90CF90BF90E7
:100E3000AF909F908F907F906F905F904F900895AC
:100E400085ED8093BC008091120390911303A091D3
:100E50001403B09115030796A11DB11D23E0B695AB
:100E6000A795979587952A95D1F72091BC0024FDE9
:100E700003C010925B030895409112035091130335
:100E80006091140370911503452B462B472B69F392
:100E90000097A105B10541F02AE22A95F1F700C0BB
:100EA0000197A109B109E1CF809111031DCC1F92D7
:100EB0000F920FB60F9211240BB60F922F933F9300
:100EC0004F935F936F937F938F939F93AF93BF9352
:100ED000EF93FF9389E993E023DAFF91EF91BF91BC
:100EE000AF919F918F917F916F915F914F913F91C2
:100EF0002F910F900BBE0F900FBE0F901F90189563
:100F00001F920F920FB60F9211240BB60F922F93D0
:100F10008F939F93EF93FF93E091A903F091AA031E
:100F20008081E091AF03F091B00382FD1DC09081FC
:100F30008091B2038F5F8F732091B303821741F0CA
:100F4000E091B203F0E0E756FC4F958F8093B20337
:100F5000FF91EF919F918F912F910F900BBE0F906A
:100F60000FBE0F901F9018958081F2CF1F920F92A5
:100F70000FB60F9211242F933F938F939F93AF93AC
:100F8000BF938091820390918303A0918403B091D9
:100F900085033091810323E0230F2D3758F5019607
:100FA000A11DB11D2093810380938203909383033D
:100FB000A0938403B0938503809186039091870367
:100FC000A0918803B09189030196A11DB11D809362
:100FD000860390938703A0938803B0938903BF91FE
:100FE000AF919F918F913F912F910F900FBE0F90D6
:100FF0001F90189526E8230F0296A11DB11DD2CF90
:101000001F920F920FB60F9211240BB60F922F93CF
:101010003F934F935F936F937F938F939F93AF9380
:10102000BF93EF93FF938091B900887F803609F4D6
:101030004CC008F03FC0883209F4A8C028F58031C0
:1010400009F49CC0C8F4882309F4FAC0883009F474
:1010500095C0FF91EF91BF91AF919F918F917F913B
:101060006F915F914F913F912F910F900BBE0F9019
:101070000FBE0F901F901895883109F487C08032F9
:1010800041F780935A0314C0803409F49CC040F4A3
:101090008033B9F38833E9F680935A0385ECAFC007
:1010A000803509F484C0883509F495C0883489F600
:1010B000C7DECFCF883909F48CC038F5883729F0DE
:1010C00050F4883611F0803721F683E080935B037B
:1010D0001092590357C0883809F47BC0803919F041
:1010E000803809F0B6CF80915903803208F071C082
:1010F000E091590381E08E0F809359038091BB00EA
:10110000F0E0E75CFC4F80833DC0803B39F0E0F4C9
:10111000803A09F479C0883A09F09BCF84E0809343
:101120005B031092380310923703E0918C03F09127
:101130008D0319958091370381110FC081E0809351
:1011400037031092170309C0803C09F4A7CF883CED
:1011500009F4A4CF883B09F07CCFE091380381E00B
:101160008E0F80933803F0E0E95EFC4F808180931E
:10117000BB00909138038091370329C08091800390
:101180008093BB0085EC8093BC0063CF90917F037C
:1011900080917E03981758F5E0917F0381E08E0FD0
:1011A00080937F03F0E0E25AFC4F8081E9CFE09129
:1011B0007F0381E08E0F80937F038091BB00F0E07E
:1011C000E25AFC4F808390917F0380917E039817B1
:1011D000C8F285E8D8CFE0917F0381E08E0F80933D
:1011E0007F038091BB00F0E0E25AFC4F8083809146
:1011F0005D0381115DCF81E080935C0384EA80937D
:10120000BC0010925B0325CF85EC8093BC0010924C
:101210005B0380915903803230F4E0915903F0E090
:10122000E75CFC4F10826091590370E0E0918A0303
:10123000F0918B0389E393E019951092590309CF3C
:1012400010925A0335CF1F920F920FB60F921124AE
:101250000BB60F928F939F93EF93FF93E8E6F0E026
:10126000808192E08927808381E080939803809336
:101270009603FF91EF919F918F910F900BBE0F906E
:101280000FBE0F901F9018951F920F920FB60F92DE
:1012900011248F939F938DB394E089278DBB81E0B8
:1012A00080939803809397039F918F910F900FBE27
:1012B0000F901F9018951F920F920FB60F92112446
:1012C0008F939F9381E08093D0021092CF0283B1DD
:1012D0009091000187FD18C097FF16C08091090109
:1012E0008093CE025F9A0000000000000000000022
:1012F00000000000000000005F989F918F910F9008
:101300000FBE0F901F90189597FD2AC087FF28C029
:101310008FEF80930A0110920B018091CD02809390
:101320000B01809101018F7E809301018091020168
:101330008F7E809302015F9A8091000185FDFCCF32
:1013400010920A0110920B015F9880910201806156
:101350008093020180910101806180930101CDCFD2
:1013600081E08093CF02C9CFE9E9F3E013821282D2
:1013700088EE93E0A0E0B0E084839583A683B783F2
:1013800020E832E03183208325ED30E03587248763
:1013900024ED30E03787268720ED30E0318B208B3D
:1013A00021ED30E0338B228B22ED30E0358B248B26
:1013B00026ED30E0378B268B118E128E138E148E15
:1013C000E6E3F4E01382128284839583A683B783D5
:1013D00082E992E0918380830895789484B5826055
:1013E00084BD84B5816084BD85B5826085BD85B5C9
:1013F000816085BD80916E00816080936E00109247
:1014000081008091810082608093810080918100C1
:101410008160809381008091800081608093800052
:101420008091B10084608093B1008091B0008160B0
:101430008093B000809191008260809391008091B0
:1014400091008160809391008091900081608093F1
:1014500090008091A10082608093A1008091A10002
:1014600081608093A1008091A00081608093A000A2
:10147000809121018260809321018091210181600E
:1014800080932101809120018160809320018091CF
:101490007A00846080937A0080917A0082608093E1
:1014A0007A0080917A00816080937A0080917A003E
:1014B000806880937A001092C100E091A903F091B6
:1014C000AA0392E09083E091A503F091A603108215
:1014D000E091A703F091A8038FEC80831092B103F1
:1014E000E091AD03F091AE0386E08083E091AB0321
:1014F000F091AC03808180618083E091AB03F09137
:10150000AC03808188608083E091AB03F091AC03F1
:10151000808180688083E091AB03F091AC0380818F
:101520008F7D80831092980310920A0110920B0114
:1015300011B817B812B818B814B88BE98AB99093D3
:10154000010188E0909102019F7D909302019091AA
:101550000201906190930201909102019F7E90930D
:101560000201815079F788E028EC9091020127FF71
:1015700094C1906290930201220F909102019061B8
:1015800090930201909102019F7E909302018150FD
:1015900061F78091020180618093020180910201D4
:1015A0008F7E80930201FF24FA94FDB8F0BAF3BA5B
:1015B000F0920401F0920701FEB8F1BAF4BAF09289
:1015C0000501F09208018BEB90E093D1EC0186E0ED
:1015D000DE01E82F1D92EA95E9F7FE013696DF015C
:1015E000982F1D929A95E9F7DD87CC87FF87EE87C4
:1015F0009E012E5F3F4F398B288B2A5F3F4F3B8BDD
:101600002A8BDD8BCC8BFF8BEE8B27503109398FEA
:10161000288F2A5F3F4F3B8F2A8F235031093D8F00
:101620002C8F2A5F3F4F3F8F2E8F18A27B96DF01B2
:101630001D928A95E9F7369680E1DF011D928A9521
:10164000E9F780E2E6E0F2E0DE01D79601900D9244
:101650008A95E1F7FE01E95AFF4F88E0DF011D920C
:101660008A95E9F739961082DE01AB59BF4F86E5BE
:10167000E6E2F2E001900D928A95E1F76E01BFE596
:10168000CB0ED11C80E7F60180838E010F591F4FCE
:1016900086E394E0D8018D939C9310928F0310926F
:1016A0008E03109291031092900302D88BE191E087
:1016B00090938D0380938C038CE191E090938B0346
:1016C00080938A03FE01ED59FF4F89E993E09183EE
:1016D0008083D0939503C0939403109204011092D9
:1016E0000501109207011092080182E080936800C2
:1016F000F0926C000E94FE02CE0117DAF8018081A0
:101700009181D6012C91FF24F394F09293032093BE
:101710009203109291031092900361E270E069D9F4
:10172000F8018081918182D8D8018D919C91F60138
:101730002081F092930320939203109291031092D0
:10174000900361E870E055D9D8018D919C916ED8D5
:10175000F80180819181D6012C91F092930320931E
:101760009203109291031092900361EA70E041D9C4
:10177000F801808191815AD8D8018D919C91F60110
:101780002081F09293032093920310929103109280
:10179000900360EE70E02DD9D8018D919C9146D8D0
:1017A000CE01C3D9F80180819181D6012C91F092AC
:1017B000930320939203109291031092900370E090
:1017C00060E017D9C0E1D0E070E060E0F80180810E
:1017D00091810FD92197C1F7D8018D919C9126D87D
:1017E0000E94FE021DBA80E8809369008CE08DBBE8
:1017F0004F9880919803882309F44CC080919703F7
:10180000882361F080919403909195038ED9809103
:10181000940390919503F4D81092970380919603C6
:10182000882381F161EB72E089E993E025D962EACE
:1018300072E089E993E020D9C0919403D091950397
:10184000CD59DF4F088119816FEB72E0C80114D9BF
:1018500062EA72E0C80110D90990D881C02D409188
:10186000060150E070E060E022E0CE0114D962EAA7
:1018700072E0CE0101D98091940390919503C0D874
:101880001092960310929803EA9A80916800826001
:10189000809368000E941D02ACCF9F7D6BCEA1E2B9
:1018A0001A2EAA1BBB1BFD010DC0AA1FBB1FEE1FDA
:1018B000FF1FA217B307E407F50720F0A21BB30B25
:1018C000E40BF50B661F771F881F991F1A9469F7A1
:1018D00060957095809590959B01AC01BD01CF01FD
:1018E0000895EE0FFF1F881F8BBF0790F691E02D24
:1018F00019940F931F93CF93DF938230910510F4C7
:1019000082E090E0E0914404F091450430E020E072
:10191000B0E0A0E0309799F42115310509F44AC0F0
:10192000281B390B24303105D8F58A819B8161153C
:10193000710589F1FB0193838283FE0111C040810F
:1019400051810281138148175907E0F04817590760
:1019500099F4109761F012960C93129713961C93BA
:101960003296CF01DF91CF911F910F91089500938F
:10197000440410934504F4CF2115310551F042176A
:10198000530738F0A901DB019A01BD01DF01F8011D
:10199000C1CFEF01F9CF9093450480934404CDCF9C
:1019A000FE01E20FF31F8193919322503109398395
:1019B0002883D7CF2091420430914304232B41F454
:1019C0002091020230910302309343042093420499
:1019D00020910002309101022115310541F42DB70B
:1019E0003EB74091040250910502241B350BE09153
:1019F0004204F0914304E217F307A0F42E1B3F0BBF
:101A00002817390778F0AC014E5F5F4F2417350770
:101A100048F04E0F5F1F509343044093420481935C
:101A200091939FCFF0E0E0E09CCFCF93DF930097BE
:101A3000E9F0FC01329713821282A0914404B09124
:101A40004504ED0130E020E01097A1F420813181C0
:101A5000820F931F209142043091430428173907C5
:101A600009F061C0F0934304E0934204DF91CF9109
:101A70000895EA01CE17DF07E8F54A815B819E01F0
:101A800041155105B1F7E901FB83EA834991599169
:101A9000C40FD51FEC17FD0761F480819181029678
:101AA000840F951FE90199838883828193819B83A9
:101AB0008A83F0E0E0E012968D919C911397009755
:101AC000B9F52D913C911197CD010296820F931F8C
:101AD00020914204309143042817390739F6309792
:101AE00051F51092450410924404B0934304A0931E
:101AF0004204BCCFD383C28340815181840F951FA0
:101B0000C817D90761F44E5F5F4F88819981480FEC
:101B1000591F518340838A819B819383828321153E
:101B2000310509F0B0CFF0934504E09344049ECF13
:101B3000FD01DC01C0CF13821282D7CFF894FFCF12
:101B40000000460420000000FFFF0100000001002B
:101B500000000000FFFFFFFF000000000100000088
:101B60000100FFFF00003F1106011B220F02262289
:101B70002D223D2201113F222722000000000000FB
:101B8000000000000000000037228F0A39008F0893
:101B9000392031203D02362289081E0030253800C8
:101BA000760176043F0033223F0433262D2281083C
:101BB0003E003011361440154009091100000000A4
:101BC000B2011D014A01FE017B0159016D010000B6
:101BD0000000E803BC03F6049203B503A2039303D9
:101BE0002C000D0A00646F776E62616E6B5F6E3A57
:101BF00000656E636F64657220696E707574006B4A
:0C1C00006E6F62207475726E65643A00AD
:00000001FF
