:1000000001C3000030C300002EC300009CC60000E6
:100010000C94E10828C3000026C3000024C300009C
:1000200022C3000020C3000041C600001CC3000022
:100030000C94D31418C3000016C3000014C30000AE
:1000400012C3000010C300000EC300000CC3000068
:100050000AC3000008C3000006C300000C94FD0B97
:1000600002C3000000C30000FEC20000FCC200008A
:10007000FAC20000F8C20000F6C20000F4C200009C
:10008000F2C20000F0C20000EEC20000ECC20000AC
:10009000EAC20000E8C20000E6C200000C94B80CFE
:1000A000E2C20000E0C20000DEC20000DCC20000CC
:1000B000DAC20000D8C20000D6C20000D4C20000DC
:1000C000D2C20000D0C20000CEC200000C94A20B2D
:1000D0000C94790BC8C20000C6C20000C4C2000064
:1000E000C2C20000760A790A680A6C0A700AB00A6D
:1000F0007D0A810A870A8B0A8F0A950A990A9D0A46
:10010000B00AA30AA70AAB0A3202320278025F02DF
:1001100072023202320278025F02000022002500E1
:1001200028002B002E0031003400020100000501E0
:1001300008010B0105050505070508080808020266
:1001400002020A0A08080404040401010101010171
:1001500001010303030303030303040707070C0C54
:100160000C0C0C0C0C0C020202020606060606061B
:1001700006060B0B0B0B0B0B0B0B010210202008C0
:1001800008102040102040800201020108040201F2
:100190000102040810204080804020100804020161
:1001A00080040201804020100804020108040201BA
:1001B0000102040810204080010204081020408041
:1001C00000000A0B02090C0D0E08070304010000D1
:1001D000000000000000000000000000000000001F
:1001E00000000000000000000000000012111000DC
:1001F00000000000000000000000000000000000FF
:10020000000000000000CF93DF93CDB7DEB72A9740
:100210000FB6F894DEBF0FBECDBFE0910204F0919F
:1002200003041081112331F00580F681E02DE08078
:10023000F18002C0E12CF12C0E9482140E947814FB
:100240006C018091790390917A03C816D90620F445
:100250000E946A1081E001C080E0D0927A03C092CF
:100260007903811178C0112351F0CE14DF0470F0AE
:100270000E949C15B601C7010E9442106EC0E09119
:100280000004F0910104808161E0811160E000913F
:100290000404109105040FB6F8940F92D8015D96EE
:1002A0008C915D978F3F11F45D961C92F801868DBD
:1002B0008F3F09F4168E0F900FBED8015A968C917D
:1002C0005A9781113EC05296ED91FC915397A0919F
:1002D0000904B0910A041F96FC93EE931E97A09117
:1002E0000904B0910A048481958151969C938E9360
:1002F00050978091090490910A04A481B5810C96CD
:1003000013969C938E9312978091090490910A04FE
:100310000C9695838483E0910904F0910A04C80146
:100320004196958B848BF80181898F5F818B611158
:1003300004C0C7018C199D0902C08FEF9FEF0E9476
:10034000FD12C8010E9493140E949C15811105C0E2
:100350000E94D51402C00E949C15CE0101967C011A
:1003600085E0D7011D928A95E9F700910404109168
:1003700005041A86198680E05801F1E1AF0EB11C20
:100380000FB6F8940F92D8015A96DC905A97DD2058
:1003900009F4B2C05C964C915C974423F9F050E0AC
:1003A00016968D919C911797840F951F17969C9385
:1003B0008E93169714962D913C911597821793075B
:1003C00038F08D919C91119717969C938E93169768
:1003D000F80166817781C7010E94E81EDA94D8018E
:1003E0005A96DC925A9718968C91882339F0C80156
:1003F00008960E94BD1381110E94D5140F900FBE64
:10040000B980B7FCB2CF0C811D81F801828593853C
:10041000892B21F0C80102960E94610F0E94781476
:100420006C018091790390917A03C816D90610F473
:100430000E946A10D0927A03C09279038B2DBB0C74
:10044000990BAA0BBB0BFC013197E930F10508F0C1
:100450008CCFD80152969C918827EC57FF4F8F4F35
:100460000C94C81E9160F801928BAA80BB806485B1
:1004700075856A0D7B1D9501A601C8010E94F60FC6
:10048000882309F472CFD80152968C91529782FF3B
:100490000BC01C966D917C911D976A0D7B1DA6016A
:1004A000C8010E941F1003C08E7FF801828BD80103
:1004B0005096ED91FC915197C801199556CF9160D6
:1004C000D80152969C9352976A817B811D967C93AA
:1004D0006E931C976C0D7D1D9601A601C8010E94AC
:1004E000F60F43CF91FD04C0C8010E94CB0F3DCF52
:1004F0009E7FF801928B39CF29853A85232B19F4F9
:100500000F900FBE8ACE811109C080910D048E8399
:1005100080910B0490910C0498878F830F900FBEED
:100520000E9482140FB6F8940F92F801858D8F3FC8
:1005300009F4158ED8015E968C915E978F3F11F469
:100540005E961C920F900FBEBE01675F7F4FCE017B
:1005500006960E94891381111CC0C8010E9488144C
:10056000882389F069857A85C5010E946914C801CC
:100570000E9493140E949C15882311F081E000CF03
:100580000E94D514FBCFC8010E9493140E949C15B1
:10059000F5CFC8010E9493140E949C15C8010E94C7
:1005A0008814882359F339CE8091C903882309F12F
:1005B0000FB6F8940F92E091CF03F091D003C6816B
:1005C000D781CE0102960E94610F8091C8038150AD
:1005D0008093C8038091C90381508093C9030F9011
:1005E0000FBE8F89988D0E94CB0FCE010E94CB0F3A
:1005F000DBCF80910E04823010F00E94D5140FD70B
:10060000D3CF941811241FBECFEFD1E2DEBFCDBFF0
:1006100000E00CBF13E0A0E0B2E0E4EFFDE300E097
:100620000BBF02C007900D92A434B107D9F725E0A3
:10063000A4E4B3E001C01D92A634B207E1F713E0D1
:10064000C2E0D3E000E006C021970109802FFE013F
:100650000E94C81EC130D10780E00807A9F70E9498
:10066000CD180C94F81ECCCC860F0895CF92DF9253
:10067000EF92FF920F931F93CF93DF93EC016C01E6
:1006800081E6C80ED11CD6018D919C910E94631BFE
:100690008130E9F5FE01E15AFF4F908180935F04BC
:1006A0009093810410926004109282048E010D597F
:1006B0001F4F60E070E0F801808191810E94150E6B
:1006C0007E01F7E2EF0EF11CE796D8018D919C9127
:1006D000F70161917F01DC01ED91FC910190F081C6
:1006E000E02D1995EC16FD0681F7F80180819181C6
:1006F0000E941C0ED6018D919C91DF91CF911F918C
:100700000F91FF90EF90DF90CF900C940C1ADF9137
:10071000CF911F910F91FF90EF90DF90CF900895B0
:10072000EC018C010B591F4F0E942C1D672B682B6D
:10073000692BD1F3F801E080F1806DEA72E0C70126
:100740000E94010FC7010E945E0F40910601F8014F
:10075000E080F18050E060E070E022E0C7010E949C
:10076000160FC7010E945E0FCE0180DFDDCFCF9351
:10077000DF9300D000D0CDB7DEB78C0186E0E7E094
:10078000F2E0DE01119601900D928A95E1F7CE011B
:1007900001967C01A8014F5D5F4FD80120E01296C1
:1007A000263041F479E8E72E72E0F72EEAE3CE2E08
:1007B000D12C9BC0F70181917F0130ED380FFA01F8
:1007C0008193AF01C801830F911D830F911DBC015F
:1007D00069597F4FFB01308195963C9395978859D5
:1007E0009F4FFC01808196968C9396972F5FD7CF71
:1007F00065EF72E083E894E00E94010FD5018D90CF
:100800009D905D01F401608171816115710521F494
:100810006091090470910A04675E7F4F83E894E059
:100820000E94010F6DEF72E083E894E00E94010FD7
:10083000D401ED91FC91309721F4E0910904F091FD
:100840000A048789908DFC01AF01481B590B219147
:10085000253AD1F360E070E02AE083E894E00E945A
:10086000160F83E894E00E945E0FEA14FB0409F07F
:10087000BFCF83E894E00E945E0F45E0242F30E074
:10088000F801E20FF31FB1A081E08B0D90E0B601FB
:100890000E94931E803308F480E390ED980F81A3AB
:1008A000220F331FF801E20FF31F9801290F311DAA
:1008B000290F311DD901A959BF4F9C9197A31196BA
:1008C0009C9190A741508B1508F446C0C801CEDE1C
:1008D0000E94821460E088E391E00E94FD120E9471
:1008E0009C15811102C00E94D5146AEB72E083E866
:1008F00094E00E94010F83E894E00E945E0F69ED8E
:1009000072E083E894E00E94010F0E947814AC0129
:1009100060E070E02AE083E894E00E94160F66EE43
:1009200072E083E894E00E94010F4091C80350E018
:1009300060E070E02AE083E894E00E94160F83E80C
:1009400094E00E945E0F83E894E00E945E0F63E8EB
:10095000A62E62E0B62E4CCF4F3F09F08FCFB6CF18
:100960004F925F926F927F92AF92BF92CF92DF923F
:10097000EF92FF920F931F93CF93DF93EC0198A117
:10098000992329F0915098A380E090E073C1FE0173
:10099000E05AFF4F10825E0131E6A30EB11CD50173
:1009A0008D919C910E94631B813009F034C18E01AE
:1009B000015A1F4FF801908180935F049093810446
:1009C00010926004109282047E01F3E6EF0EF11C97
:1009D00060E470E0D7018D919C910E94150EF701A3
:1009E000808191810E941C0ED8010C91E1D62B01CF
:1009F0003C0110915904112329F180915B049091DD
:100A00005C04A0915D04B0915E04892B8A2B8B2B32
:100A100081F3CED620915B0430915C0440915D045B
:100A200050915E04DC01CB0184199509A609B70930
:100A3000281739074A075B07E0F680915A0443D725
:100A400010E08AC081E080935904809358049FEF9E
:100A5000909357041092560495E090935504809318
:100A6000340490913404802F880F892B80933404B0
:100A700080913304813079F51092330499D62B019B
:100A80003C01809134048093BB0080915B04909181
:100A90005C04A0915D04B0915E04892B8A2B8B2BA2
:100AA000A1F086D620915B0430915C0440915D04F6
:100AB00050915E04DC01CB0184199509A609B709A0
:100AC000281739074A075B0780F18091BC0083FD36
:100AD000D8CF85EC01C085EE8093BC0069D62B0190
:100AE0003C0180915904813021F580915B04909103
:100AF0005C04A0915D04B0915E04892B8A2B8B2B42
:100B000081F356D620915B0430915C0440915D04E2
:100B100050915E04DC01CB0184199509A609B7093F
:100B2000281739074A075B07E0F680915A04CBD6AD
:100B300013C080915604863018F48091560401C089
:100B400086E0A5E3B4E0E3E5F3E010E0181721F058
:100B50009D9191931F5FFACF1092740310937303CA
:100B600000E010E0F70180819181DC01ED91FC91C2
:100B70000084F185E02D1995892B31F1CC84DD8439
:100B8000C00ED11EF70180819181DC01ED91FC91B5
:100B90000284F385E02D1995982F9295892F8C7CEE
:100BA000282F269526959373B4E09B9FC0011124AE
:100BB000822B982F9A7A96958575880F892BF60146
:100BC00080830F5F1F4FCECFD5018D919C910E94E6
:100BD0000C1AE12CF12C6E01B5E6CB0ED11C0E15D2
:100BE0001F05C9F0EC85FD85EE0DFF1D408150E02D
:100BF00060E070E02AE0F601808191810E94160F8A
:100C000060E173E0D6018D919C910E94010FBFEFCE
:100C1000EB1AFB0AE4CF8E010B591F4FF8018081BC
:100C200091810E945E0F62E173E0D8018D919C91E9
:100C30000E94010FF80100811181E889F989408142
:100C400050E060E070E02AE0C8010E94160FC80181
:100C50000E945E0FE889F9899DA9808189278DAB63
:100C6000EC89FD899BA9808189278BAB8FE088A3C4
:100C700081E090E0DF91CF911F910F91FF90EF9075
:100C8000DF90CF90BF90AF907F906F905F904F902C
:100C90000895EC010E942C1D672B682B692BD1F362
:100CA000CE015EDECE01E2DCEA9AF4CF1F920F9213
:100CB0000FB60F9211240BB60F922F933F934F93C1
:100CC0005F936F937F938F939F93AF93BF93EF93B4
:100CD000FF93CF93DF931F92CDB7DEB71982E091D8
:100CE0005103F091520327A182E087A383A194A12D
:100CF000A5A1B6A10196A11DB11D83A394A3A5A38F
:100D0000B6A3213031F4BE016F5F7F4FCF010E9447
:100D10007112898181110E94D5140F90DF91CF91BA
:100D2000FF91EF91BF91AF919F918F917F916F91C3
:100D30005F914F913F912F910F900BBE0F900FBE7F
:100D40000F901F9018951F920F920FB60F921124BB
:100D50000BB60F922F933F934F935F936F937F93B5
:100D60008F939F93AF93BF93EF93FF93CF93DF93B3
:100D70001F92CDB7DEB79DB384E089278DBB198262
:100D8000E0914F03F091500327A182E087A383A154
:100D900094A1A5A1B6A10196A11DB11D83A394A301
:100DA000A5A3B6A3213031F4BE016F5F7F4FCF0101
:100DB0000E947112898181110E94D5140F90DF91D8
:100DC000CF91FF91EF91BF91AF919F918F917F91C3
:100DD0006F915F914F913F912F910F900BBE0F90AC
:100DE0000FBE0F901F901895CF92DF92EF92FF9257
:100DF0000F931F93CF93DF93E0919304F0919404AA
:100E000092E09083E0918F04F09190041082E09141
:100E10009104F09192048FEC808310929B04E091F6
:100E20009704F091980486E08083E0919504F09116
:100E30009604808180618083E0919504F09196040E
:100E4000808188608083E0919504F0919604808190
:100E500080688083E0919504F091960480818F7D75
:100E6000808310920A0110920B0111B817B812B8C2
:100E700018B814B88BE98AB99093010188E0909171
:100E800002019F7D909302019091020190619093E5
:100E90000201909102019F7E90930201815079F7A7
:100EA00088E028EC9091020127FF02C0906201C007
:100EB0009F7D90930201220F909102019061909387
:100EC0000201909102019F7E90930201815051F79F
:100ED00080910201806180930201809102018F7EE6
:100EE000809302011DBA80E8809369008CE08DBB7D
:100EF0004F988FEF8DB980BB83BB809304018093A3
:100F000007018EB981BB84BB8093050180930801E2
:100F10008DEB90E00E94721DEC0186E0DE01E82F6F
:100F20001D92EA95E9F7FE013696DF01982F1D9292
:100F30009A95E9F7DD87CC87FF87EE879E012E5FC4
:100F40003F4F398B288B2A5F3F4F3B8B2A8BDD8BA2
:100F5000CC8BFF8BEE8B27503109398F288F2A5F7E
:100F60003F4F3B8F2A8F235031093D8F2C8F2A5FB3
:100F70003F4F3F8F2E8F18A27B96DF011D928A95DF
:100F8000E9F7369680E1DF011D928A95E9F780E264
:100F9000EDE0F2E0DE01D79601900D928A95E1F73F
:100FA000FE01E95AFF4F88E0DF011D928A95E9F7BB
:100FB000399610828FE190E0FDD78C010097B1F057
:100FC000FC019183808381E0838F148EC8010E948D
:100FD0002A1BD80115961C921E92149711961C92EA
:100FE0001E9216961C92C8010E940C1A7E01B1E650
:100FF000EB0EF11CF7011183008386E5EDE2F2E0D0
:10100000DE01A959BF4F01900D928A95E1F76E015B
:10101000FFE5CF0ED11C80E7D6018C938E010D59D0
:101020001F4F80E295E0F801918380831092740352
:1010300010927303109260041092820428D48DEEF3
:101040009AE090937603809375038EEE9AE09093E6
:1010500078038093770383E894E0FE01EB59FF4F18
:1010600091838083D0934E03C0934D03109204016B
:1010700010920501109207011092080182E08093FE
:1010800068008FEF80936C00CE016ADCD7018D91F0
:101090009C910E94631B813059F5F60190818093E9
:1010A0005F0490938104109260041092820461E2C4
:1010B00070E0D8018D919C91B8D561E870E0F8019D
:1010C00080819181B2D561EA70E0D8018D919C91C7
:1010D000ACD560EE70E0F80180819181A6D5D80191
:1010E0008D919C91A9D5F701808191810E940C1A64
:1010F000D7018D919C910E94631B813031F5F601DF
:10110000908180935F049093810410926004109208
:10111000820460E070E0D8018D919C9186D550E109
:10112000C52ED12C60E070E0F801808191817DD5E1
:10113000F1E0CF1AD108B1F7D8018D919C917CD5FF
:10114000F701808191810E940C1ACE018FDA2091E3
:101150004D0330914E038FE4E82E83E0F82E00E03B
:1011600040E054E06EE173E089E496E00E94681785
:1011700020914D0330914E039BE4E92E93E0F92E2C
:1011800040E054E064E273E087EB93E00E9468176C
:1011900020914D0330914E0341E5E42E43E0F42EBF
:1011A00040E054E06BE273E080E993E00E9468174E
:1011B000DF91CF911F910F91FF90EF90DF90CF9033
:1011C00008951F920F920FB60F9211248F939F9341
:1011D00081E080934A031092490393B1809100010A
:1011E000807897FD13C0803809F03AC080910901DA
:1011F000809348035F9A0000000000000000000098
:1012000000000000000000005F982DC0803841F110
:101210008FEF80930A0110920B0180914703809316
:101220000B01809101018F7E809301018091020169
:101230008F7E809302015F9A8091000185FDFCCF33
:1012400010920A0110920B015F9880910201806157
:10125000809302018091010180618093010103C0AC
:1012600081E0809349039F918F910F900FBE0F9063
:101270001F901895FC01538D448D252F30E0842F4D
:1012800090E0821B930B541710F0CF9608950197AE
:101290000895FC01918D828D981761F0828DDF0198
:1012A000A80FB11D5D968C91928D9F5F9F73928F59
:1012B00090E008958FEF9FEF0895FC01918D828D4E
:1012C000981731F0828DE80FF11D858D90E008951B
:1012D0008FEF9FEF0895FC01918D228D892F90E073
:1012E000805C9F4F821B91098F739927089583E833
:1012F00094E0F1DF21E0892B09F420E0822F0895AA
:10130000FC01848DDF01A80FB11DA35ABF4F2C91A2
:10131000848D90E001968F739927848FA689B78971
:101320002C93A089B1898C91837080648C93938D68
:10133000848D981306C00288F389E02D80818F7D0B
:1013400080830895EF92FF920F931F93CF93DF93C3
:10135000EC0181E0888F9B8D8C8D981305C0E88906
:10136000F989808185FD25C0F62E0B8D10E00F5F79
:101370001F4F0F731127E02E8C8DE8120BC00FB694
:1013800007FCFACFE889F989808185FFF5CFCE0186
:10139000B7DFF2CF8B8DFE01E80FF11DE35AFF4F4F
:1013A000F0829FB7F8940B8FEA89FB898081806275
:1013B0000AC09FB7F894EE89FF896083E889F989AC
:1013C00080818370806480839FBF81E090E0DF91A3
:1013D000CF911F910F91FF90EF900895CF93DF93DE
:1013E000EC01888D8823C1F0EA89FB89808185FD25
:1013F00005C0A889B9898C9186FD0EC00FB607FC7F
:10140000F5CF808185FFF2CFA889B9898C9185FFBE
:10141000EDCFCE0175DFE8CFDF91CF91089580E069
:1014200090E0892B41F080E090E0892B21F00E9430
:101430000000811120C080E090E0892B41F080E025
:1014400090E0892B21F00E940000811117C080E0FC
:1014500090E0892B19F04BDF811113C080E090E000
:10146000892BA1F080E090E0892B81F00E940000A0
:1014700081110AC008950E940000DDCF0E94000083
:10148000E6CF0E940000EACF0C9400000895362FAA
:1014900090E0FC01E054FE4F4491FC01E658FE4F01
:1014A0002491FC01EC5CFE4F9491992309F46CC0EB
:1014B000442309F455C050E0FA013197E231F105B7
:1014C00008F04EC08827EE58FF4F8F4F0C94C81E6F
:1014D000809180008F7707C0809180008F7D03C04E
:1014E00080918000877F809380003AC084B58F7799
:1014F00002C084B58F7D84BD33C08091B0008F77EA
:1015000003C08091B0008F7D8093B00029C080918E
:1015100090008F7707C0809190008F7D03C08091ED
:101520009000877F809390001BC08091A0008F77F0
:1015300007C08091A0008F7D03C08091A000877FAD
:101540008093A0000DC0809120018F7707C080910B
:1015500020018F7D03C080912001877F809320012F
:10156000E92FF0E0EE0FFF1FE65EFE4FA591B4916C
:101570009FB7F894311104C08C912095282302C0A4
:10158000EC912E2B2C939FBF089540919C03262F06
:1015900030E0240F311D21323105DCF42091590453
:1015A0002430C9F4FC0180E090E0861758F43091B3
:1015B0009C032191DC01A458BC4FA30FB11D2C93B7
:1015C0000196F3CF80919C03680F60939C0380E0A9
:1015D000089581E0089582E008950895089508959A
:1015E000E091740380917303E81730F4F0E0ED5A52
:1015F000FC4F808190E008958FEF9FEF08959091C8
:10160000740380917303981750F4E92FF0E0ED5ABA
:10161000FC4F208130E09F5F9093740302C02FEF56
:101620003FEFC90108958091730390E02091740306
:10163000821B91090895CF92DF92EF92FF920F9350
:101640001F93CF93DF937C01CB018A0120915F042C
:10165000222389F0EB016B01C40ED51ECC15DD05EC
:1016600061F06991D701ED91FC910190F081E02D3D
:10167000C7011995F3CF642F88DFC801DF91CF919F
:101680001F910F91FF90EF90DF90CF900895CF932F
:10169000DF931F92CDB7DEB7698320915F042223C9
:1016A000D1F020918204203240F021E030E0FC01B2
:1016B0003383228380E090E014C080916004E82F9F
:1016C000F0E0EF59FB4F998190838F5F8093600426
:1016D0008093820404C061E0CE01019656DF81E070
:1016E00090E00F90DF91CF910895089580E090E011
:1016F00008951F920F920FB60F9211240BB60F92FE
:101700002F933F934F935F936F937F938F939F9309
:10171000AF93BF93EF93FF9383E894E0F1DDFF91E4
:10172000EF91BF91AF919F918F917F916F915F9159
:101730004F913F912F910F900BBE0F900FBE0F90C6
:101740001F9018951F920F920FB60F9211240BB68F
:101750000F922F938F939F93EF93FF93E0919304B6
:10176000F09194048081E0919904F0919A0482FDB3
:1017700012C0908180919C048F5F8F7320919D0493
:10178000821751F0E0919C04F0E0ED57FB4F958FEC
:1017900080939C0401C08081FF91EF919F918F9174
:1017A0002F910F900BBE0F900FBE0F901F901895AA
:1017B0003FB7F8948091C4039091C503A091C603EC
:1017C000B091C70326B5A89B05C02F3F19F001961D
:1017D000A11DB11D3FBFBA2FA92F982F8827820FB7
:1017E000911DA11DB11DBC01CD0142E0660F771F07
:1017F000881F991F4A95D1F708951F920F920FB62F
:101800000F9211242F933F938F939F93AF93BF9386
:101810008091C0039091C103A091C203B091C30312
:101820003091BF0323E0230F2D3720F40196A11D33
:10183000B11D05C026E8230F0296A11DB11D2093FE
:10184000BF038093C0039093C103A093C203B093DE
:10185000C3038091C4039091C503A091C603B091C6
:10186000C7030196A11DB11D8093C4039093C503C6
:10187000A093C603B093C703BF91AF919F918F917F
:101880003F912F910F900FBE0F901F9018951092BF
:10189000590481E0809358041092330461E084E19C
:1018A000F6DD61E085E1F3DDE9EBF0E080818E7F3C
:1018B000808380818D7F808388E48093B80085E475
:1018C0008093BC000895CF93DF9391E090937B03C6
:1018D0008823A1F0C091B800D091BA008091BC00DB
:1018E0008A7B8093BC0060E084E1D1DD60E085E12B
:1018F000CEDDCDDFD093BA00C093B800DF91CF9199
:10190000089585ED8093BC0080915B0490915C0408
:10191000A0915D04B0915E040796A11DB11D23E066
:10192000B695A795979587952A95D1F72091BC00F4
:1019300024FF1BC040915B0450915C0460915D04E6
:1019400070915E04452B462B472B81F30097A10530
:10195000B10541F02AE22A95F1F700C00197A109EB
:10196000B109E4CF80915A04AECF10925904089582
:101970001F920F920FB60F9211240BB60F922F9356
:101980003F934F935F936F937F938F939F93AF9307
:10199000BF93EF93FF938091B900887F803609F45D
:1019A0009CC068F5883209F45BC090F4803109F47A
:1019B00054C038F4882309F4F6C0883009F44DC0C7
:1019C000F5C0883109F44CC0803209F45DC0EEC026
:1019D000803409F468C048F4803309F455C0883372
:1019E00009F0E4C080935704D8C0803509F44FC093
:1019F000883509F45DC0883409F0D8C0D6C088396C
:101A000009F4C7C0A8F4883709F467C038F48836E9
:101A100009F463C0803709F460C0C8C0883809F48D
:101A2000B8C0803909F45FC0803809F0BFC05BC01E
:101A3000803B09F486C038F4803A09F466C0883ADD
:101A400009F47FC0B3C0803C09F4A7C0883C09F406
:101A5000A4C0883B09F48AC0A9C08091340410C096
:101A60009091560480915504981770F5E0915604B2
:101A700081E08E0F80935604F0E0EB5CFB4F808199
:101A80008093BB0085EC86C0809357048EC0E091A4
:101A9000560481E08E0F809356048091BB00F0E0E5
:101AA000EB5CFB4F808390915604809155046EC08F
:101AB000E091560481E08E0F809356048091BB0024
:101AC000F0E0EB5CFB4F80838091580481116DC086
:101AD00081E08093330484EA61C083E080935904F9
:101AE0001092BE03CFCF8091BE03803208F051C068
:101AF000E091BE0381E08E0F8093BE038091BB0016
:101B0000F0E0E256FC4F8083BDCF85EC8093BC00B3
:101B1000109259048091BE03803230F4E091BE03EC
:101B2000F0E0E256FC4F10826091BE0370E0E0915D
:101B30007703F09178038EE993E019951092BE0334
:101B400035C084E08093590410929D0310929C0349
:101B5000E0917503F0917603199580919C038111B2
:101B600005C081E080939C0310927C03E0919D036B
:101B700081E08E0F80939D03F0E0E458FC4F80815C
:101B80008093BB0090919D0380919C03981708F46B
:101B900079CF85E88093BC0009C085EC8093BC00B8
:101BA0001092590403C010925704ABDEFF91EF91DD
:101BB000BF91AF919F918F917F916F915F914F9165
:101BC0003F912F910F900BBE0F900FBE0F901F9063
:101BD0001895CF92DF92EF92FF920F931F93CF93BE
:101BE000DF936C017A018B01C0E0D0E0CE15DF05F8
:101BF00081F0D8016D918D01D601ED91FC9101909C
:101C0000F081E02DC6011995892B11F02196EECFB8
:101C10007E01C701DF91CF911F910F91FF90EF904F
:101C2000DF90CF9008950E94E41EDC01ED91FC91BD
:101C30000190F081E02D19948F929F92AF92BF9204
:101C4000CF92DF92EF92FF920F931F93CF93DF9388
:101C500010918204113208F0BBC0D0918104A8DD3C
:101C60006B017C01C0915904CC2309F180915B0484
:101C700090915C04A0915D04B0915E04892B8A2B45
:101C80008B2B81F395DD80905B0490905C04A09099
:101C90005D04B0905E04DC01CB018C199D09AE0996
:101CA000BF0988169906AA06BB06E0F67EC082E048
:101CB0008093590481E0809358048FEF80935704F8
:101CC0001092560410935504A1E6B4E0E5E3F4E065
:101CD00080E0181721F09D9191938F5FFACF1092B9
:101CE0003404909134048D2F880F892B8093340411
:101CF00080913304813079F51092330459DD6B0102
:101D00007C01809134048093BB0080915B049091AE
:101D10005C04A0915D04B0915E04892B8A2B8B2B0F
:101D2000A1F046DD00915B0410915C0420915D04FC
:101D300030915E04DC01CB018C199D09AE09BF090D
:101D4000081719072A073B0780F18091BC0083FD23
:101D5000D8CF85EC01C085EE8093BC0029DD6B01F6
:101D60007C0180915904823029F580915B04909127
:101D70005C04A0915D04B0915E04892B8A2B8B2BAF
:101D800081F316DD00915B0410915C0420915D04E9
:101D900030915E04DC01CB018C199D09AE09BF09AD
:101DA000081719072A073B07E0F680915A048BDDD4
:101DB000C5E013C0809157048F3F79F0809157049C
:101DC000803241F080915704803331F0C4E005C087
:101DD000C1E003C0C2E001C0C3E0109260041092F1
:101DE000820410925F048C2FDF91CF911F910F918D
:101DF000FF90EF90DF90CF90BF90AF909F908F902B
:101E000008956115710579F0FB0101900020E9F753
:101E10003197AF01461B570BDC01ED91FC9102801D
:101E2000F381E02D199480E090E008958F929F92C5
:101E3000AF92BF92EF92FF920F931F93CF93DF93D6
:101E4000CDB7DEB7A1970FB6F894DEBF0FBECDBFFA
:101E50007C01FA01CB0119A2223008F42AE08E019C
:101E60000F5D1F4F822E912CA12CB12CBF01A5011B
:101E700094010E94A61EF901CA01015011096A309D
:101E800014F4605D01C0695CD8016C93232B242B92
:101E9000252B61F7B801C701B4DFA1960FB6F894FE
:101EA000DEBF0FBECDBFDF91CF911F910F91FF908D
:101EB000EF90BF90AF909F908F90089560E473E093
:101EC000A0CFCF93DF93FC01A085B1858281938160
:101ED00024813581EC013D832C83C481D5819B8392
:101EE0008A8311968D919C911297E817F90721F436
:101EF0001296DC93CE931197118610868C918150A7
:101F00008C938C91DF91CF9108950F931F93CF9372
:101F1000DF938C01FB01808191818F3F2FEF92072E
:101F200021F4E801AF81B8850EC0D801139612964E
:101F30002D913C911397E9014881598184179507A8
:101F400010F0D901F4CF12968D919C911397938341
:101F50008283EC01FD83EC83B583A4831396FC9309
:101F6000EE93129711870087F80180818F5F80833D
:101F7000DF91CF911F910F910895FC0103969283F9
:101F800081832FEF3FEF348323839683858390876C
:101F9000878310820895CF93DF93009741F0EC017F
:101FA000B1D4CE010E940A1EDF91CF91C5C5DF9149
:101FB000CF910895CF93DF93EC01A4D4CE010E947A
:101FC000721DEC01B9D5209769F4279A2F9A2FEF4B
:101FD00080E792E0215080409040E1F700C000008F
:101FE0001F9AF5CFCE01DF91CF910895FC01738345
:101FF0006283918780874617570778F0421B530BFF
:102000008485958548175907C0F4BF016E5F7F4FDF
:1020100080910004909101040DC04217530718F4F9
:102020006217730750F4BF016E5F7F4F8091020407
:10203000909103046ADF80E0089581E00895EF92B3
:10204000FF920F931F93CF93DF93EC018B017A01E3
:102050006C857D85600F711F9801A701CE01C6DFD9
:10206000882349F08C859D85080F191FE889F98917
:10207000CE011995EDCFDF91CF911F910F91FF9078
:10208000EF900895EF92FF920F931F93CF93DF93FA
:102090008C017B01E0910204F09103040580F6813C
:1020A000E02DC681D781CE0102960BDF8A8982FF9F
:1020B00005C0A701B801CE01C2DF02C08E7F8A8BA6
:1020C000E889F989CE01DF91CF911F910F91FF909F
:1020D000EF901994E0910204F09103048081882329
:1020E00049F00580F681E02D6FEF7FEF80819181CF
:1020F000C9DFF0CF80910004909101049093030414
:1021000080930204F0930104E09300040895E091A9
:10211000F303F091F4038081811103C08FEF9FEFEF
:1021200009C0E091F303F091F4030580F681E02DFE
:1021300080819181909308048093070408950F9201
:102140000FB6F8940F920BB60F920CB60F921F9227
:1021500011242F923F924F925F926F927F928F92B3
:102160009F92AF92BF92CF92DF92EF92FF920F9326
:102170001F932F933F934F935F936F937F938F930F
:102180009F93AF93BF93CF93DF93EF93FF93A09170
:102190000904B0910A040DB60D920EB60D9213BE4D
:1021A0008091FF038111F9C080910B0490910C0480
:1021B000019690930C0480930B04009781F5209175
:1021C000F3033091F4034091F1035091F2035093E3
:1021D000F4034093F3033093F2032093F10320912F
:1021E0000D042F5F20930D04E091F303F091F403AD
:1021F0002081211107C02FEF3FEF30930804209377
:1022000007040DC0E091F303F091F4030580F6811B
:10221000E02D208131813093080420930704209120
:102220000704309108048217930708F4A1C020E046
:1022300039E0D32EE091F303F091F40330813111B2
:1022400007C08FEF9FEF909308048093070491C01D
:10225000E091F303F091F4030580F681E02D068010
:10226000F781E02D428153818417950728F450931C
:102270000804409307047DC0A285B385448155813D
:1022800066817781EA017D836C8366817781EB01CA
:102290005B834A83AF014E5F5F4F11960D911C9196
:1022A00012970417150721F412967C936E931197D9
:1022B000138612863C9131503C93A489B5891097BE
:1022C000F9F06685778500891189EB011D830C8300
:1022D00000891189E8017B836A831196ED90FC9057
:1022E0001297BF01645F7F4FE616F70621F412963E
:1022F0001C930E931197158A148A3C9131503C938C
:10230000A689309132043A1710F4A0933204DA9E71
:10231000D0011124A25FBB4F11960D90BC91A02D4E
:10232000B583A48314966D917C911597778366830A
:1023300014966D917C911597EB015B834A831596FA
:102340005C934E9314974689D49ED0011124A25FCA
:10235000BB4FB387A2873C913F5F3C93E091090458
:10236000F0910A043689341708F064CF21E062CF77
:1023700020E0E0910904F0910A04E689D9E0ED9F9C
:10238000F0011124E25FFB4F8081823008F021E0F0
:102390008091F50381110EC00AC08091E6039091EF
:1023A000E70301969093E7038093E6036BC0222333
:1023B00009F468C08091FF03882321F081E08093B5
:1023C000F50360C01092F503A0910904B0910A04CE
:1023D000E0910904F0910A042D913C918789908D38
:1023E00082179307A8F08091090490910A048091C4
:1023F000090490910A04279A2F9A2FEF87EA91E611
:10240000215080409040E1F700C000001F9AF5CFB6
:102410008091320469E001C08150482F50E0649FF0
:102420009001659F300D1124F901E25FFB4F90810F
:10243000992391F3A181B28112966D917C911397AA
:10244000728361832F5E3B4F6217730721F42581EE
:1024500036813283218399E0949FF001959FF00D9E
:102460001124E25FFB4F0180F281E02D268137814C
:1024700030930A0420930904809332048091090464
:1024800090910A04A0910904B0910A04CD91CDBFA6
:10249000DD91DEBFFF91EF91DF91CF91BF91AF91C1
:1024A0009F918F917F916F915F914F913F912F916C
:1024B0001F910F91FF90EF90DF90CF90BF90AF9062
:1024C0009F908F907F906F905F904F903F902F9054
:1024D0001F900F900CBE0F900BBE0F900FBE0F9071
:1024E0000895CF93DF93FC018091FF0381114FC0CA
:1024F000A285B3858481958126813781EC013D8356
:102500002C83C681D7819B838A839F012E5F3F4F97
:1025100011968D919C9112978217930721F4129630
:10252000DC93CE931197138612868C9181508C93F5
:10253000A689809132048A1710F4A093320489E0AE
:102540008A9FD0011124A25FBB4F11960D90BC91C0
:10255000A02DB583A48314964D915C911597578354
:1025600046831496CD91DC9115973B832A8315966B
:102570003C932E931497A6898A9FD0011124A25FC1
:10258000BB4FB387A2878C918F5F8C9321C0A091A2
:10259000F703B091F803B787A68714968D919C91A5
:1025A0001597918B808B1496CD91DC911597CF0167
:1025B0000C969B838A8315969C938E93149786EF33
:1025C00093E0958B848B8091F6038F5F8093F60365
:1025D000A0910904B0910A04968956968C918917A6
:1025E00048F46115710519F081E0FB01808381E0F9
:1025F0008093F503DF91CF910895BF92CF92DF9240
:10260000EF92FF920F931F93CF93DF93EC01B62EBF
:10261000C0900B04D0900C040091F3031091F403CC
:10262000E090F103F090F2038091090490910A0484
:10263000029647DCCF3F8FEFD807C1F5BB20B1F141
:10264000E091E903F091EA03A0910904B0910A0432
:102650001596FC93EE931497A0910904B0910A0487
:102660008481958117969C938E9316978091090487
:1026700090910A04A481B581029613969C938E933F
:1026800012978091090490910A040296958384839D
:10269000E0910904F0910A0488EE93E09387828721
:1026A0008091E8038F5F8093E80329C0CC0DDD1D86
:1026B000E0910904F0910A04D383C2836091090474
:1026C00070910A046E5F7F4FCC15DD0558F4C70189
:1026D000DF91CF911F910F91FF90EF90DF90CF90FE
:1026E000BF9013CCC80111DC8091070490910804BD
:1026F000C817D90720F4D0930804C0930704DF91CA
:10270000CF911F910F91FF90EF90DF90CF90BF90EE
:102710000895FC01DB010FB6F8940F9240910B0471
:1027200050910C042D913C9111972F3F8FEF38075A
:1027300001F18181928160910D047081761739F0E9
:102740004817590720F01D921C9281E013C0481BC6
:10275000590B42175307B8F7241B350B2D933C93A5
:1027600080910D04808380910B0490910C049283DE
:10277000818380E00F900FBE0895CF93DF93DC013B
:102780001596ED91FC9116970680F781E02DA489AE
:10279000B5898685978520893189EC013D832C8315
:1027A000C089D1899B838A83CF010C9611962D9184
:1027B0003C9112972817390721F41296DC93CE9397
:1027C0001197158A148A2C9121502C932091FF0384
:1027D00021114FC0A285B3858481958126813781DF
:1027E000EC013D832C83C681D7819B838A839F0123
:1027F0002E5F3F4F11968D919C91129782179307F0
:1028000021F41296DC93CE931197138612868C9145
:1028100081508C93A689809132048A1710F4A0937A
:10282000320489E08A9FD0011124A25FBB4F119628
:102830000D90BC91A02DB583A48314964D915C910D
:102840001597578346831496CD91DC9115973B835A
:102850002A8315963C932E931497A6898A9FD001BC
:102860001124A25FBB4FB387A2878C918F5F8C939B
:102870001FC0A091F703B091F803B787A6871496FD
:102880002D913C911597318B208B1496CD91DC9135
:1028900015979B838A8315969C938E93149786EF46
:1028A00093E0958B848B8091F6038F5F8093F60382
:1028B000A0910904B0910A04968956968C918917C3
:1028C00020F481E08093F50301C080E0DF91CF9197
:1028D0000895CF93DF93EB016091090470910A048E
:1028E000645F7F4F12DB61E0CE01DF91CF9185CE37
:1028F0000FB6F8940F9280910B0490910C040F90F6
:102900000FBE08958091FF038F5F8093FF030895AA
:102910000FB6F8940F92FC01928D0F900FBE81E0DC
:10292000911180E00895EF92FF920F931F93CF9340
:10293000DF93EC010FB6F8940F921E8D7C0181E1BC
:10294000E80EF11C01E0111654F48989882339F04E
:10295000C70113DF81110093F5031150F4CF8FEFFE
:102960008E8F0F900FBE0FB6F8940F921D8D7E01C3
:1029700088E0E80EF11C01E0111654F488858823E4
:1029800039F0C701FADE81110093F5031150F4CF3D
:102990008FEF8D8F0F900FBEDF91CF911F910F9111
:1029A000FF90EF900895CBDB18950F920FB6F89437
:1029B0000F920BB60F920CB60F921F9211242F920A
:1029C0003F924F925F926F927F928F929F92AF92BF
:1029D000BF92CF92DF92EF92FF920F931F932F93AC
:1029E0003F934F935F936F937F938F939F93AF9397
:1029F000BF93CF93DF93EF93FF93A0910904B0911E
:102A00000A040DB60D920EB60D928091FF03882335
:102A100021F081E08093F50360C01092F503A0914E
:102A20000904B0910A04E0910904F0910A042D917F
:102A30003C918789908D82179307A8F080910904B3
:102A400090910A048091090490910A04279A2F9A80
:102A50002FEF87EA91E6215080409040E1F700C0D7
:102A600000001F9AF5CF8091320469E001C08150C7
:102A7000482F50E0649F9001659F300D1124F901AB
:102A8000E25FFB4F9081992391F3A181B28112966D
:102A90006D917C911397728361832F5E3B4F621718
:102AA000730721F4258136813283218399E0949F35
:102AB000F001959FF00D1124E25FFB4F0180F28140
:102AC000E02D2681378130930A04209309048093F6
:102AD00032048091090490910A04A0910904B091F4
:102AE0000A04CD91CDBFDD91DEBFFF91EF91DF9163
:102AF000CF91BF91AF919F918F917F916F915F9196
:102B00004F913F912F911F910F91FF90EF90DF9088
:102B1000CF90BF90AF909F908F907F906F905F907D
:102B20004F903F902F901F900F900CBE0F900BBEB8
:102B30000F900FBE0F9008958F929F92BF92CF92E9
:102B4000DF92EF92FF920F931F93CF93DF930FB615
:102B5000F8940F928091FF0381508093FF0380913E
:102B6000FF03882311F080E0A5C18091C80388236A
:102B7000D1F3E090FB03F090FC03E0E0F0E039E0FB
:102B800041E08091F603882309F480C0D7011696AE
:102B9000ED91FC911797A489B58966857785808921
:102BA0009189EB019D838C8380899189EC017B83E2
:102BB0006A83BF01645F7F4F11960D911C9112973C
:102BC0000617170721F412969C938E931197158A76
:102BD000148A8C9181508C93A285B38584819581D0
:102BE00066817781EC017D836C8366817781EB015F
:102BF0009B838A83CF01029611960D911C911297A7
:102C00000817190721F412967C936E931197138677
:102C100012862C9121502C93A689209132042A17D8
:102C200010F4A09332043A9FD0011124A25FBB4F4D
:102C300011960D90BC91A02DB583A48314966D912F
:102C40007C9115977783668314966D917C91159787
:102C5000EB019B838A8315969C938E931497968998
:102C6000399FD0011124A25FBB4FB387A2878C91FB
:102C70008F5F8C93A0910904B0910A0456968C91B1
:102C8000891708F07ECF4093F5037BCFEF2B09F037
:102C90003EDAE090E603F090E703E114F10409F472
:102CA000FEC089E0D82ECC24C3940FEF1FEF809193
:102CB000FF038111DEC0C0910B04D0910C044E01C2
:102CC0008FEF881A980A90920C0480920B0481145A
:102CD0009104B1F48091F3039091F4032091F103F6
:102CE0003091F2033093F4032093F3039093F203B3
:102CF0008093F10380910D048F5F80930D0407DAB8
:102D00008091070490910804B12C8816990608F464
:102D10009CC0E091F303F091F4038081811105C020
:102D2000109308040093070490C0E091F303F0911E
:102D3000F4030580F681E02D0680F781E02D828185
:102D400093818816990628F49093080480930704C9
:102D50007CC0C285D3858481958126813781DC0141
:102D600015963C932E93149726813781D90113969B
:102D70009C938E931297CF01029649815A814817EE
:102D8000590711F43A83298313861286288121502A
:102D90002883A489B5891097F9F02685378540895D
:102DA0005189E9015D834C8340895189EA013B8364
:102DB0002A8311966D917C9112979F01245F3F4F5A
:102DC0006217730721F412965C934E931197158A3C
:102DD000148A2C9121502C93A689209132042A1711
:102DE00010F4A0933204DA9ED0011124A25FBB4FED
:102DF00011960D90BC91A02DB583A48314962D91AE
:102E00003C9115973783268314962D913C91159705
:102E1000E9019B838A8315969C938E9314979689D8
:102E2000D99ED0011124A25FBB4FB387A2878C919A
:102E30008F5F8C93E0910904F0910A0486898917C9
:102E400008F067CFBB24B39464CFE0910904F091FC
:102E50000A04E689DE9EF0011124E25FFB4F8081C7
:102E6000823010F0BB24B3948091F50381110CC023
:102E70000AC08091E6039091E70301969093E703DF
:102E80008093E60303C0B110C092F503D1E0ED1AC0
:102E9000F10809F00CCF1092E7031092E60380913D
:102EA000F503882309F45FCE8091090490910A0408
:102EB0007CDD81E00F900FBEDF91CF911F910F91CC
:102EC000FF90EF90DF90CF90BF909F908F900895EC
:102ED0005F926F927F928F929F92AF92BF92CF92AA
:102EE000DF92EF92FF920F931F93CF93DF93582EB1
:102EF000692E5B016A01722E132FCA015BD84C0147
:102F0000892B09F466C088E290E054D8EC01892B43
:102F1000E1F088E2DE011D928A95E9F7988E8F8AAA
:102F2000A60165EA70E0C4015CD7B1E0CB1AD10814
:102F3000EF89F88DEC0DFD1DA114B104C1F0CE0197
:102F400049969501285F3F4F06C0C40124D841C06F
:102F5000A216B30659F0A501D5016D915D01DC0102
:102F60006D93CD01DA014C914111F2CF18A20430DA
:102F700008F003E00E8B09A31B861A861D8A1C8AA3
:102F8000D987C88784E090E0801B91099D878C8752
:102F9000DB8BCA8B5082DF0111976C9211971C92C8
:102FA00011971C92119780E88C9311971C9211979E
:102FB0001C9211971C9257977C9211971C93B6976D
:102FC000F983E883E114F10431F0F701D183C08380
:102FD00002C08FEF99C00FB6F8940F928091C8038A
:102FE0008F5F8093C8038091090490910A04892B14
:102FF000D1F5D0930A04C09309048091C8038130AD
:1030000009F041C08EE094E00E94BD0F87E194E09A
:103010000E94BD0F80E294E00E94BD0F89E294E01F
:103020000E94BD0F8CED93E00E94BD0F83ED93E0F5
:103030000E94BD0F86EF93E00E94BD0F8AEC93E0E3
:103040000E94BD0F88EE93E00E94BD0F8CED93E0CF
:103050009093F4038093F30383ED93E09093F20352
:103060008093F10310C08091060481110CC0E0919F
:103070000904F0910A0496898E89891720F0D0936B
:103080000A04C09309048091E5038F5F8093E503F0
:10309000EE89809132048E1710F4E093320489E0B7
:1030A0008E9FF0011124E25FFB4F0180F281E02D41
:1030B000FD83EC83248135813F832E83A481B581F8
:1030C0009E012E5F3F4F13963C932E9312973583AC
:1030D0002483EE898E9FF0011124E25FFB4FFB8772
:1030E000EA8780818F5F80830F900FBE80910604F6
:1030F000882349F0E0910904F0910A0496898E89A9
:10310000981708F452DC81E0DF91CF911F910F9165
:10311000FF90EF90DF90CF90BF90AF909F908F90F7
:103120007F906F905F900895E3E8F4E0138212823D
:1031300088EE93E0A0E0B0E084839583A683B78314
:103140002DE832E03183208325ED30E03587248778
:1031500024ED30E03787268720ED30E0318B208B5F
:1031600021ED30E0338B228B22ED30E0358B248B48
:1031700026ED30E0378B268B118E128E138E148E37
:10318000E0E2F5E01382128284839583A683B783FD
:103190008FE992E0918380830895CF93DF93CDB739
:1031A000DEB728970FB6F894DEBF0FBECDBF789478
:1031B00084B5826084BD84B5816084BD85B582603C
:1031C00085BD85B5816085BD80916E0081608093ED
:1031D0006E00109281008091810082608093810056
:1031E0008091810081608093810080918000816066
:1031F000809380008091B10084608093B1008091C1
:10320000B00081608093B0008091910082608093D3
:103210009100809191008160809391008091900055
:103220008160809390008091A10082608093A100D2
:103230008091A10081608093A1008091A0008160B5
:103240008093A00080912101826080932101809170
:103250002101816080932101809120018160809310
:10326000200180917A00846080937A0080917A00B6
:10327000826080937A0080917A00816080937A00E6
:1032800080917A00806880937A001092C10020912A
:103290000502309106028FEF91E2821B930B90930F
:1032A0000202809301020E94F406A3E3B3E0FE0150
:1032B00031962BE333E0BF018D918193882319F080
:1032C0002A173B07C9F79CE2E92E95E0F92E00E0AA
:1032D00020E030E040EC50E084ED92E0F9DD813018
:1032E00009F093C00FB6F8940F9280910404909166
:1032F0000504892B49F587E395E00E94BD0F8EE216
:1033000095E00E94BD0F87E395E0909303048093BE
:1033100002048EE295E0909301048093000481E51D
:1033200090E00E94DA0F8C01009751F04F96F8015F
:10333000918380838AE0838F85E0848FC8018AD15E
:1033400010930504009304040F900FBE80910404B1
:1033500090910504892B09F458C080E4E82E85E09B
:10336000F82E03E020E030E045E550E068E373E04C
:1033700083E091E0ADDD813009F047C0F8942FEF94
:103380003FEF3093080420930704809306041092C3
:103390000C0410920B04A89590EC88E10FB6F894F9
:1033A000A895809360000FBE90936000A0910904DF
:1033B000B0910A04CD91CDBFDD91DEBFFF91EF91B9
:1033C000DF91CF91BF91AF919F918F917F916F913D
:1033D0005F914F913F912F911F910F91FF90EF902F
:1033E000DF90CF90BF90AF909F908F907F906F9025
:1033F0005F904F903F902F901F900F900CBE0F90BA
:103400000BBE0F900FBE0F900895809100020E9496
:10341000F4060E940F0AFDCFAF92BF92DF92EF92A7
:10342000FF920F931F93CF93DF9300D01F921F92B1
:10343000CDB7DEB78C011D821C8280E0780198E058
:10344000E90EF11C0FB6F8940F92D8015A962C9100
:103450005A975B969C915B97291708F09EC05A96E5
:10346000DC905A975C964C915C97411169C08D91A4
:103470009C91892B09F07EC0F801E480F580E1146D
:10348000F10411F480E058C0D70192968C91929784
:10349000815092968C93929756962C91569791962E
:1034A0009C91291779F38111EDCF5701B2E0AB0E52
:1034B000B11CC5010E94610FF70181A1868B482FC5
:1034C00050E024E030E0241B350B358724879091B1
:1034D0003204981710F48093320489E0849FF0013D
:1034E000859FF00D1124E25FFB4F0180F281E02DFA
:1034F000D7011596FC93EE93149724813581179686
:103500003C932E931697A481B5811396BC92AE92EC
:103510001297B582A482D7015696EC9156978E9F4A
:10352000F0011124E25FFB4F1B96FC93EE931A9778
:1035300080818F5F808381E0F801158214821BC037
:1035400050E060E070E0D80112968D919C91139745
:103550003FD4F801248D82819381820F911D938342
:103560008283248135818217930720F080819181A5
:103570009383828380E0D394D8015A96DC925A9741
:1035800051969C91992319F0C8014196F6D8811162
:103590000CDA0F900FBE81E04EC02C813D81232BB1
:1035A00019F40F900FBE46C0811109C080910D041F
:1035B000898380910B0490910C049B838A830F90E4
:1035C0000FBEA0D90FB6F8940F92F801858D8F3FEA
:1035D00009F4158ED8015E968C915E978F3F11F499
:1035E0005E961C920F900FBEBE016C5F7F4FCE01A6
:1035F00001968FD881111BC00FB6F8940F92F80175
:10360000928D838D0F900FBE98130DC06C817D81BC
:10361000C7015FD9C80187D98FDA882311F081E00B
:1036200011CFC3D9FCCFC8017ED986DAF8CFC80143
:103630007AD982DA80E00F900F900F900F900F9060
:10364000DF91CF911F910F91FF90EF90DF90BF908E
:10365000AF900895CF93DF93009789F1FC01238DFC
:10366000222369F1EC010FB6F8940F924081518149
:10367000838D648D9A01869F200D311D1124358321
:103680002483128E5383428390E00197689F9001B8
:10369000699F300D1124CA01820F931F978386837F
:1036A0008FEF858F868FCF0108960E94BD0FCE01C8
:1036B00041960E94BD0F0F900FBE81E001C080E0D7
:1036C000DF91CF9108957F928F929F92AF92BF9298
:1036D000CF92DF92EF92FF920F931F93CF93DF93DE
:1036E00000D01F921F92CDB7DEB78C011D821C82C5
:1036F000D12C90E0580121E1A20EB11C89E0782E76
:1037000024E0822E912C0FB6F8940F92D8015A968D
:103710008C915A97882319F181505A968C935A9715
:103720008D919C91892B71F4E0910904F0910A0428
:10373000309719F082A18F5F82A3D8011596FC9370
:10374000EE931497F8018085882329F0C801089624
:1037500014D881112AD90F900FBE81E06AC12C8143
:103760003D81232B09F462C1911109C080910D04A0
:10377000898380910B0490910C049B838A830F9022
:103780000FBEC0D80FB6F8940F92D8015D968C91F9
:103790005D978F3F11F45D961C92F801868D8F3FE7
:1037A00009F4168E0F900FBEBE016C5F7F4FCE01E5
:1037B00001960E9489138111ABC0C801A9D8882342
:1037C00009F4A2C0D8018D919C91892B09F08EC07B
:1037D0000FB6F8940F92F801E480F580E114F1043B
:1037E00009F481C0D70156968C915697E09109044F
:1037F000F0910A049689891708F069C01C962D91EA
:103800003C911D9737FD0CC0E0910904F0910A042A
:1038100096899401291B31091D963C932E931C9780
:10382000789EC0011124825F9B4FF701228533856A
:103830002817390709F041C06701F2E0CF0ED11C0B
:10384000C6010E94610FE0910904F0910A04E68923
:10385000D7015696EC93809132048E1710F4E093C2
:1038600032047E9EF0011124E25FFB4F0180F28161
:10387000E02DD7011596FC93EE93149784819581E2
:1038800017969C938E931697A481B5811396DC921C
:10389000CE921297D582C482D7015696EC91569754
:1038A0007E9EF0011124E25FFB4F1B96FC93EE938A
:1038B0001A9780818F5F808307C0E0910904F0919F
:1038C0000A048689F701868BDD24D3940DC0E0912C
:1038D0000904F0910A04DD24D394D70191969C91B8
:1038E0008689981708F0D12C0F900FBE6C817D81CE
:1038F000C5010E946914C80116D81ED9882311F089
:1039000091E001CF52D8FCCFC8010DD815D9F8CF1E
:10391000C80109D811D9C8010E948814882381F3ED
:10392000DD2009F485C00FB6F8940F92F801818963
:10393000882339F00688F789E02D908184E0891B7F
:1039400001C080E0D80114960D911C9115970115C6
:10395000110509F46BC0F80191A1981708F4982F8C
:10396000D80156968C915697891709F45FC09296A4
:103970002C919297213009F059C056969C935697F6
:103980001C962D913C911D9737FD08C024E030E036
:10399000291B31091D963C932E931C97B9E08B9FF0
:1039A000C0011124825F9B4FF801228533852817BF
:1039B0003907E1F57801F2E0EF0EF11CC7010E9432
:1039C000610FD8015696EC91809132048E1710F455
:1039D000E093320489E08E9FF0011124E25FFB4FF7
:1039E0000180F281E02DD8011596FC93EE93149797
:1039F0002481358117963C932E931697A481B58127
:103A00001396FC92EE921297F582E482D8015696B4
:103A1000EC9156978E9FF0011124E25FFB4F1B96AD
:103A2000FC93EE931A9780818F5F80830F900FBE77
:103A300080E00F900F900F900F900F90DF91CF913B
:103A40001F910F91FF90EF90DF90CF90BF90AF90BC
:103A50009F908F907F9008950FB6F8940F92E09109
:103A60000904F0910A0483A194A1A5A1B6A1892B10
:103A70008A2B8B2BA9F4E0910904F0910A0481E0D0
:103A800087A30E9482140F900FBE61E08FEF9FEF1B
:103A90000E94FD1251D8811105C00E94D51402C0A8
:103AA0000F900FBE0FB6F8940F92E0910904F091B9
:103AB0000A0463A174A185A196A161157105810510
:103AC000910541F0E0910904F0910A0413A214A2B7
:103AD00015A216A2E0910904F0910A0417A20F9012
:103AE0000FBE08950F931F93CF93DF9382309105FC
:103AF00010F482E090E0E0914405F091450520E06B
:103B000030E0A0E0B0E0309719F1408151810281AE
:103B1000138148175907C8F08417950769F410975F
:103B200031F012960C93129713961C9327C00093B2
:103B300044051093450522C02115310519F042179F
:103B4000530718F49A01BD01EF01DF01F801DBCF43
:103B500021153105F9F0281B390B2430310580F48B
:103B60008A819B816115710521F0FB01938382831A
:103B700004C09093450580934405FE01329644C0ED
:103B8000FE01E20FF31F8193919322503109398393
:103B900028833AC02091420530914305232B41F4FC
:103BA0002091030230910402309343052093420593
:103BB00020910102309102022115310541F42DB707
:103BC0003EB74091050250910602241B350BE0914F
:103BD0004205F0914305E217F307A0F42E1B3F0BBB
:103BE0002817390778F0AC014E5F5F4F241735076F
:103BF00048F04E0F5F1F5093430540934205819359
:103C0000919302C0E0E0F0E0CF01DF91CF911F91EE
:103C10000F910895CF93DF93009709F481C0FC01C1
:103C2000329713821282A0914405B09145051097F6
:103C300081F420813181820F931F209142053091C0
:103C400043052817390751F5F0934305E0934205E2
:103C500067C0ED0120E030E0CE17DF0740F44A8175
:103C60005B819E0141155105F1F0EA01F5CFD38347
:103C7000C28340815181840F951FC817D90759F419
:103C800088819981840F951F0296918380838A8110
:103C90009B81938382832115310529F4F093450597
:103CA000E09344053DC0E901FB83EA8349915991C2
:103CB000C40FD51FEC17FD0761F480819181840F3B
:103CC000951F0296E90199838883828193819B8362
:103CD0008A83E0E0F0E012968D919C911397009713
:103CE00019F0FD01DC01F7CF8D919C9111979D0199
:103CF0002E5F3F4F820F931F209142053091430565
:103D00002817390769F4309729F410924505109265
:103D1000440502C013821282B0934305A09342056A
:103D2000DF91CF91089597FB072E16F4009406D0EB
:103D300077FD08D035D007FC05D03EF490958195ED
:103D40009F4F0895709561957F4F0895A1E21A2EB7
:103D5000AA1BBB1BFD010DC0AA1FBB1FEE1FFF1F2F
:103D6000A217B307E407F50720F0A21BB30BE40B7F
:103D7000F50B661F771F881F991F1A9469F76095C6
:103D80007095809590959B01AC01BD01CF01089580
:103D9000EE0FFF1F881F8BBF0790F691E02D19943F
:103DA000AA1BBB1B51E107C0AA1FBB1FA617B70761
:103DB00010F0A61BB70B881F991F5A95A9F780957D
:103DC0009095BC01CD01089581E090E0F89410C079
:103DD000FB01DC0102C001900D9241505040D8F728
:103DE0000895DC0101C06D9341505040E0F7089503
:043DF000F894FFCF75
:103DF400030000460520003030303030300000FF32
:103E0400FF01000000010000000000FFFFFFFF00B1
:103E1400000000010000000100FFFF00003F110648
:103E2400011B220F0226222D223D2201113F2227AF
:103E34002200000000000000000000000000003725
:103E4400228F0A39008F08392031203D0236228919
:103E5400081E0030253800760176043F0033223FE7
:103E64000433262D2281083E0030113614401540BB
:103E74000909114F034B03510300000000A209E993
:103E84000D3A09EE096B0949095D09000000004774
:103E94000B1B0B760BEF0A130BFF0AF00A6B6E6F0A
:103EA40062207475726E65643A003D3D3D3D3D3D52
:103EB4003D3D205461736B7320737461747573207A
:103EC4003D3D3D3D3D3D3D3D005469636B20636F89
:103ED400756E743A20002C205461736B20636F75E7
:103EE4006E743A20002D205441534B20002C20485E
:103EF4006967682057617465726D61726B3A20005E
:103F04002C00646F776E62616E6B5F6E3A00496E6F
:103F1400707574004462674D6F6E00456E63526540
:103F240061640049444C4500546D7220537663002B
:043F34000D0A000072
:020000023000CC
:10E000000D9489F10D94B2F10D94B2F10D94B2F129
:10E010000D94B2F10D94B2F10D94B2F10D94B2F1F0
:10E020000D94B2F10D94B2F10D94B2F10D94B2F1E0
:10E030000D94B2F10D94B2F10D94B2F10D94B2F1D0
:10E040000D94B2F10D94B2F10D94B2F10D94B2F1C0
:10E050000D94B2F10D94B2F10D94B2F10D94B2F1B0
:10E060000D94B2F10D94B2F10D94B2F10D94B2F1A0
:10E070000D94B2F10D94B2F10D94B2F10D94B2F190
:10E080000D94B2F10D94B2F10D94B2F10D94B2F180
:10E090000D94B2F10D94B2F10D94B2F10D94B2F170
:10E0A0000D94B2F10D94B2F10D94B2F10D94B2F160
:10E0B0000D94B2F10D94B2F10D94B2F10D94B2F150
:10E0C0000D94B2F10D94B2F10D94B2F10D94B2F140
:10E0D0000D94B2F10D94B2F10D94B2F10D94B2F130
:10E0E0000D94B2F12A00593D506F727420626C6930
:10E0F0006E6B00563D73686F7720696E746572723F
:10E1000075707420566563746F727300523D447568
:10E110006D702052414D00513D51756974004C3D68
:10E120004C69737420492F4F20506F7274730048EC
:10E130003D48656C7000463D44756D7020464C410D
:10E14000534800453D44756D7020454550524F4D34
:10E1500000423D426C696E6B204C454400403D4599
:10E160004550524F4D2074657374003F3D435055E8
:10E1700020737461747300303D5A65726F2061645E
:10E18000647200504F5254004545206572722063FE
:10E190006E743D0052656164696E672045450057A5
:10E1A00072697474696E672045450020004D75736F
:10E1B000742062652061206C657474657200506F14
:10E1C0007274206E6F7420737570706F72746564F2
:10E1D000005768617420706F72743A006A6D702025
:10E1E00000726A6D702020006E6F20766563746F18
:10E1F00072005623202020414444522020206F707A
:10E2000020636F64652020202020696E737472750E
:10E210006374696F6E2061646472202020496E749B
:10E2200065727275707400352E342E3000322E30C7
:10E230002E30004E6F762032392032303231004C91
:10E240006F636B20667573652020203D2000457844
:10E25000742066757365202020203D200048696782
:10E260006820667573652020203D20004C6F772064
:10E2700066757365202020203D20004350552049BD
:10E28000442020202020203D200047434320566585
:10E290007273696F6E203D2000415652204C6962B6
:10E2A00043205665723D20005F5F4156525F4152E8
:10E2B00043485F5F3D2000435055205479706520EE
:10E2C0002020203D2000436F6D70696C6564206FD5
:10E2D0006E203D20004875683F00426F6F746C6F80
:10E2E000616465723E0041726475696E6F20657885
:10E2F000706C6F7265722073746B353030563220DB
:10E300006279204D4C530041546D6567613235365A
:10E31000300011241FBECFEFD1E2DEBFCDBF01E040
:10E320000CBF12E0A0E0B2E0E4E2F7EF03E00BBFC5
:10E3300002C007900D92A430B107D9F722E0A4E003
:10E34000B2E001C01D92A231B207E1F70F94EFF2E3
:10E350000D9490FB01E20EBF0FEF0DBF11241FBE05
:10E360000D94EFF20D9400F08093C6008091C000F0
:10E3700086FFFCCF8091C00080648093C000089528
:10E3800020E030E02817390749F0EFECF7E031974B
:10E39000F1F700C000002F5F3F4FF4CF0895CF93F7
:10E3A000DF93EC01C60FD11DCE01A0E0B0E0ABBF02
:10E3B000FC018791882321F021960F94B4F1F4CFCA
:10E3C000DF91CF9108958DE00F94B4F18AE00D9420
:10E3D000B4F10F94CFF10D94E3F1CF93DF93EC01FF
:10E3E0008991882319F00F94B4F1FACFDF91CF917E
:10E3F0000895CF93C82F982F92959F7080E3890F2F
:10E400008A3310F087E3890F0F94B4F1CF7080E363
:10E410008C0F8A3310F087E38C0FCF910D94B4F1F9
:10E420000F931F93CF93DF93EC018B0185369105FA
:10E430001CF4633071054CF0CE0164E670E00F947B
:10E4400029FB80E3860F0F94B4F1CB30D1051CF487
:10E45000023011056CF0CE0164E670E00F9429FBE8
:10E460006AE070E00F9429FB80E3860F0F94B4F10B
:10E47000CE016AE070E00F9429FB805DDF91CF91BF
:10E480001F910F910D94B4F18091C00087FFFCCFD4
:10E490008091C6000895CF93C82F60E083E891EE85
:10E4A0000F94CFF18C2F0F94B4F1CF910D94E3F131
:10E4B0002F923F924F925F926F927F928F929F9294
:10E4C000AF92BF92CF92DF92EF92FF920F931F9382
:10E4D000CF93DF93CDB7DEB763970FB6F894DEBF67
:10E4E0000FBECDBF082F6A017B0180E1382E10E0FE
:10E4F0004E0181E1880E911C91E0C916D104E90614
:10E50000F10418F08E2D0F94F9F18D2D0F94F9F17F
:10E510008C2D0F94F9F180E20F94B4F18DE20F94F9
:10E52000B4F180E20F94B4F11982FE0131965F01DB
:10E53000260137012E2EBB8A013051F028F002301F
:10E5400059F4F201108108C06BBEF201179104C0AA
:10E55000C2010F947AFB182F812F0F94F9F180E2FA
:10E560000F94B4F180EE810F8F3518F4F50110830C
:10E5700003C08EE2F50180839FEF491A590A690AA8
:10E58000790AEFEFAE1ABE0AA814B904A9F6F0E1B1
:10E59000CF0ED11CE11CF11C198A822D9B890F948E
:10E5A000EDF10F94E3F13A943110A6CF63960FB6D4
:10E5B000F894DEBF0FBECDBFDF91CF911F910F91B9
:10E5C000FF90EF90DF90CF90BF90AF909F908F9093
:10E5D0007F906F905F904F903F902F900895CF93D2
:10E5E000DF93CDB7DEB7CF52D1400FB6F894DEBF80
:10E5F0000FBECDBF01E20EBF0FEF0DBF94B7F89471
:10E60000A89514BE8091600088618093600010928C
:10E610006000789493FF05C0E0910402F091050238
:10E620001995279A2F9A8091C00082608093C0002C
:10E6300080E18093C40088E18093C100000000E085
:10E6400010E0C12CD12C7601B7EC8B2EBBE19B2EB8
:10E65000A12CB12C8091C00087FD26C001151105A9
:10E6600019F525E02A95F1F700003FEFC31AD30A08
:10E67000E30AF30A91E080E041E2C4164EE4D406D6
:10E68000E104F10408F490E0092F182FC701B60146
:10E69000A50194010F943DFB672B682B692BD1F6E4
:10E6A00085B1805885B9D6CF0F5F1F4F0130110556
:10E6B00011F00D94FFFAC65DDE4F19821882CA521E
:10E6C000D140E12CF12C612CB12CCA5DDE4F1982B6
:10E6D0001882C652D140CE5DDE4F188219821A824E
:10E6E0001B82C252D140212C312C210120E030E08C
:10E6F00080E001301105C1F041E052E16AE770E0CD
:10E700009091C00097FD10C04150510961097109F5
:10E71000B9F76BBFFA01479156914F3F5F4F61F3D5
:10E72000EE27FF270994E8CF9091C600C65DDE4F23
:10E73000A881B981CA52D1401196C65DDE4FB98316
:10E74000A883CA52D140913209F0F7C41A9708F051
:10E7500052C5BFEFEB1AFB0AE3E0EE16F10409F035
:10E760004CC5A5E0EA2EF12C09E110E081E20F94FE
:10E77000B4F101501109D1F70F94E3F1F1E0EF1A70
:10E78000F10891F710920E0210920F0210921002EF
:10E790001092110210920A0210920B0210920C02B7
:10E7A00010920D02109206021092070210920802B7
:10E7B0001092090260E086EE92EE0F94E9F11FEFED
:10E7C000F9E07F2E60E08AED92EE0F94CFF10F9486
:10E7D00044F2082F803608F00F75003230F0802F99
:10E7E0000F94B4F180E20F94B4F1063409F4CFC170
:10E7F00008F097C0003409F408C108F08BC000335A
:10E8000009F4EDC00F3309F092C462E08BE691EE9B
:10E810000F94E9F160E086EE92EE0F94E9F160E08A
:10E8200086EC92EE0F94CFF160E083E392EE0F94CA
:10E83000E9F160E087EB92EE0F94CFF160E087E0C2
:10E8400093EE0F94E9F160E088EA92EE0F94CFF135
:10E8500086E30F94B4F10F94E3F160E08AE892EE5E
:10E860000F94CFF160E087E292EE0F94E9F160E05F
:10E8700089E992EE0F94CFF160E08DE292EE0F9471
:10E88000E9F160E08BE792EE0F94CFF18EE10F9407
:10E89000F9F188E90F94F9F181E00F94F9F10F94FF
:10E8A000E3F160E08CE692EE0F94CFF1E0E0F0E06F
:10E8B0007092570084910F94F9F10F94E3F160E0A6
:10E8C0008DE592EE0F94CFF1E3E0F0E07092570007
:10E8D00084910F94F9F10F94E3F160E08EE492EEED
:10E8E0000F94CFF1E2E0F0E07092570084910F9422
:10E8F000F9F10F94E3F160E08FE392EE0F94CFF122
:10E90000E1E0F0E07092570084910F94F9F10F94D8
:10E91000E3F158CF023409F4F6C0053409F40DC10F
:10E9200006C4013509F497C168F5083409F453C1E8
:10E930000C3409F0FCC362E08EE191EE0F94E9F132
:10E9400081E40F944BF282E40F944BF283E40F9432
:10E950004BF284E40F944BF285E40F944BF286E47F
:10E960000F944BF287E40F944BF288E40F944BF230
:10E970008AE40F944BF28BE40F944BF28CE40F94E7
:10E980004BF220CF063509F470C1093509F4D5C220
:10E99000023509F0CCC362E08CE091EE0F94E9F10E
:10E9A00040910E0250910F0260911002709111027D
:10E9B00082E00F9458F280910E0290910F02A09184
:10E9C0001002B09111029F5FAF4FBF4F80930E02B4
:10E9D00090930F02A0931002B0931102F3CE62E065
:10E9E00087E791EE0F94E9F110920A0210920B0260
:10E9F00010920C0210920D0210920E0210920F0251
:10EA0000109210021092110275C062E08DE591EE35
:10EA10000F94E9F160E08FE991EE0F94E9F10F9422
:10EA2000E3F1E12CF12CC7018A519D41A0E0B0E057
:10EA3000ABBFFC0107910A32B9F0E11422E0F20603
:10EA400099F0602FC7010F9482FB011106C060E0AE
:10EA50008BEA91EE0F94CFF103C0802F0F94B4F1A5
:10EA6000FFEFEF1AFF0ADFCF0F94E3F10F94E3F10A
:10EA700060E084E991EE0F94E9F10F94E3F1C12C89
:10EA8000D12CE12CF12CC7018A519D41A0E0B0E0CE
:10EA9000ABBFFC0107910A32D9F0E11452E0F50650
:10EAA000B9F0C7010F947AFBB82E811106C060E05F
:10EAB0008BEA91EE0F94CFF102C00F94B4F1B0162F
:10EAC00019F03FEFC31AD30A4FEFE41AF40ADBCF71
:10EAD0000F94E3F10F94E3F160E088E891EE0F9476
:10EAE000CFF161E070E0C6010F9410F20F94E3F1F2
:10EAF0000F94E3F11092060210920702109208029E
:10EB0000109209025FCE62E081E591EE0F94E9F187
:10EB1000279A2F9A8091C00087FD0CC02F9884E619
:10EB200090E00F94C0F12F9A84E690E00F94C0F12A
:10EB3000F1CF12B80F9444F245CE62E083E491EE37
:10EB40000F94E9F14091060250910702609108028A
:10EB50007091090281E00F9458F280910602909121
:10EB60000702A0910802B09109029F5FAF4FBF4F0B
:10EB70008093060290930702A0930802B0930902C3
:10EB800081159041A105B10508F41CCEB3CF62E018
:10EB900086E391EE0F94E9F140910A0250910B0245
:10EBA00060910C0270910D0280E00F9458F28091F8
:10EBB0000A0290910B02A0910C02B0910D029F5F8E
:10EBC000AF4FBF4F80930A0290930B02A0930C02A9
:10EBD000B0930D02F7CD62E08FE291EE0F94E9F170
:10EBE00060E087E791EE0F94E9F160E08BE691EE4B
:10EBF0000F94E9F160E08DE591EE0F94E9F160E0AA
:10EC000081E591EE0F94E9F160E083E491EE0F94D9
:10EC1000E9F160E086E391EE0F94E9F160E08FE2C4
:10EC200091EE0F94E9F160E08EE191EE0F94E9F13D
:10EC300060E087E191EE0F94E9F160E08CE091EE05
:10EC40000F94E9F160E083EF90EE0F94E9F160E05A
:10EC500086EE90EE6FC262E087E191EE0F94E9F1EB
:10EC6000E12CF12C77247394DBC262E083EF90EE09
:10EC70000F94E9F160E087E093EE0F94E9F160E032
:10EC800082EF91EE0F94E9F1C85DDE4F1982188290
:10EC9000C852D140C25EDE4F188219821A821B828E
:10ECA000CE51D140C25EDE4F88819981AA81BB815D
:10ECB000CE51D140B695A79597958795C45DDE4F07
:10ECC00088839983AA83BB83CC52D140C85DDE4F31
:10ECD000A881B981C852D1401196C85DDE4FB98371
:10ECE000A883C852D14062E070E0CD010F9410F2C9
:10ECF00080E20F94B4F18DE20F94B4F180E20F94AE
:10ED0000B4F180E00F94F9F1C45DDE4F8881CC52FC
:10ED1000D1400F94F9F180E20F94B4F18DE30F9498
:10ED2000B4F180E20F94B4F1C25EDE4F28813981E4
:10ED30004A815B81CE51D1404BBFF901F790DA0196
:10ED4000C9010196A11DB11DABBFFC01E790DA011D
:10ED5000C9010296A11DB11DABBFFC01D790DA011C
:10ED6000C9010396A11DB11DABBFFC0107912C5F2A
:10ED70003F4F4F4F5F4FC25EDE4F288339834A8338
:10ED80005B83CE51D1408E2C912CA12CB12CBA2C6E
:10ED9000A92C982C88248F0C911CA11CB11C8E2DA1
:10EDA0000F94F9F180E20F94B4F18F2D0F94F9F1E3
:10EDB00080E20F94B4F1802F0F94F9F180E20F9468
:10EDC000B4F18D2D0F94F9F180E20F94B4F13FEF7F
:10EDD00083169306A104B10431F460E088EE91EE4D
:10EDE0000F94CFF19EC0D501C4018827907CAA273B
:10EDF000BB278115904CA105B10549F5750164014A
:10EE00005FE3D522EE24FF24C45DDE4F8880998025
:10EE1000AA80BB80CC52D1408C0C9D1CAE1CBF1C68
:10EE2000880C991CAA1CBB1C60E081EE91EE0F942B
:10EE3000CFF18D2D0F94F9F18C2D0F94F9F180E223
:10EE40000F94B4F18EE30F94B4F180E062C06EE0F1
:10EE50008622E89490F8AA24BB247CE0871674E903
:10EE60009706A104B10409F05CC04F2D417050E039
:10EE700060E070E0DA0199278827402F50E060E0D9
:10EE800070E0762F652F542F44274D0D511D611DC5
:10EE9000711D480F591F6A1F7B1F8F2D807F90E0C7
:10EEA000A0E0B0E031E1880F991FAA1FBB1F3A957F
:10EEB000D1F7840F951FA61FB71F2E2D2170C22ECC
:10EEC000D12CE12CF12C45E1CC0CDD1CEE1CFF1CFF
:10EED0004A95D1F7C80ED91EEA1EFB1E46015701FE
:10EEE000880C991CAA1CBB1C60E08CED91EE0F9461
:10EEF000CFF18E2D0F94F9F18D2D0F94F9F18C2D0A
:10EF00000F94F9F180E20F94B4F18EE30F94B4F111
:10EF10008A2D0F94F9F1892D0F94F9F1882D0F9412
:10EF2000F9F10F94E3F1C85DDE4F88819981C852F1
:10EF3000D140C99709F0B6CE45CC62E086EE90EE9E
:10EF40000F94E9F160E081ED91EE0F94CFF10F9411
:10EF500044F2082F0F75802F0F94B4F10F94E3F152
:10EF60008FEB800F8A3108F0DEC0063409F471C0DF
:10EF700098F4033409F441C038F4013419F102342F
:10EF800009F0CDC014B92BC0043409F445C00534D0
:10EF900009F0C5C01DB94FC00A3409F489C048F44E
:10EFA000073409F465C0083409F0B9C010930101B1
:10EFB0006EC00B3409F48FC00C3409F0B0C010934C
:10EFC0000A019CC011B98091C00087FDB2CD82B109
:10EFD000809582B988EC90E00F94C0F1F4CF8091D5
:10EFE000C00087FD08C085B1809585B988EC90E0A8
:10EFF0000F94C0F1F4CF15B89DCD17B98091C00022
:10F0000087FD08C088B1809588B988EC90E00F949E
:10F01000C0F1F4CF18B88ECD1AB98091C00087FD29
:10F0200008C08BB180958BB988EC90E00F94C0F14B
:10F03000F4CF1BB87FCD8091C00087FD08C08EB192
:10F0400080958EB988EC90E00F94C0F1F4CF1EB893
:10F0500071CD10BB8091C00087FD08C081B3809541
:10F0600081BB88EC90E00F94C0F1F4CF11BA62CD6F
:10F0700013BB8091C00087FD08C084B3809584BB1A
:10F0800088EC90E00F94C0F1F4CF14BA53CD809186
:10F09000C00087FD0AC08091020180958093020123
:10F0A00088EC90E00F94C0F1F2CF1092020142CDB3
:10F0B000109304018091C00087FD0AC08091050172
:10F0C00080958093050188EC90E00F94C0F1F2CF19
:10F0D000109205012FCD109307018091C00087FD8C
:10F0E0000AC08091080180958093080188EC90E027
:10F0F0000F94C0F1F2CF109208011CCD8091C00096
:10F1000087FD0AC080910B01809580930B0188ECEC
:10F1100090E00F94C0F1F2CF10920B010BCD60E0A4
:10F120008EEB91EE07C060E08DEA91EE03C060E0E7
:10F1300085ED92EE0F94E9F145CB833029F120F46F
:10F14000813099F050F017C0853089F118F1863080
:10F1500009F060C0E12CF12C5AC0E12CF12C9B315C
:10F1600009F461C200E010E0C4CAE12CF12CB92618
:10F17000692E82E0F7CFE12CF12C292F30E0322FDD
:10F180002227B92683E0EECFE12CF12C292BB926DA
:10F1900084E0E8CF9E3009F04AC2B926E12CF12C78
:10F1A000CA5DDE4F19821882C652D14022C0E12CBE
:10F1B000F12CCA5DDE4F48815981C652D1404F5F64
:10F1C0005F4FE1E0F0E0EC0FFD1FCA5DDE4FA8816C
:10F1D000B981C652D140EA0FFB1F9083B92642176E
:10F1E000530709F427C2CA5DDE4F59834883C652CC
:10F1F000D14085E0B7CFE12CF12C833039F208F40F
:10F2000021C28530B1F208F422C2863029F49B1164
:10F210001EC205C0E12CF12C873009F0A3CF712C60
:10F220002981233109F4D8C060F5263009F4C6C01D
:10F23000F8F4223009F4CEC0233009F464C0213040
:10F2400009F0A8C11A8288E08B8381E48C8386E56B
:10F250008D8382E58E8389E48F8383E5888780E5CB
:10F2600089878FE58A8782E38B870BE010E096C160
:10F27000213109F455C008F094C0203109F4AAC026
:10F2800089C1283109F466C048F4253109F4A4C0C5
:10F2900008F430C1263109F42DC17CC12A3109F4AA
:10F2A0004DC008F46DC02B3109F43DC02D3109F07B
:10F2B00071C19D81903339F48F818823B1F0813001
:10F2C000B1F488E917C0892F807599F0903521F441
:10F2D00089E0E0E0F0E005C0983559F489E0E3E02A
:10F2E000F0E080935700849105C08EE103C081E077
:10F2F00001C080E01A821B829C831D828E831F8244
:10F3000007E010E04BC1EA81E059E33028F4F0E077
:10F31000E050FE4F808101C080E01A828B833EC0A6
:10F320007724739457C08D81882321F0813021F494
:10F3300088E924C08EE122C081E020C01A82E1E089
:10F34000F0E089E08093570084918B831C8204E075
:10F3500010E024C18B81803559F48C81883021F4F0
:10F36000E2E0F0E089E007C089E0E0E0F0E003C01F
:10F3700089E0E3E0F0E08093570084911A82E5CFC2
:10F380008D81836C99E0E1E0F0E0082E90935700C6
:10F39000E89507B600FCFDCF1A821B8203E010E05F
:10F3A000FDC080EC8A8302E010E0CE5DDE4F188263
:10F3B00019821A821B82C252D140F0C06A817B81BD
:10F3C0008C819D810F945FFB1B012C01220C331C4F
:10F3D000441C551C1A82E0C0CA80DB80DC24CD248A
:10F3E000DC24233109F05DC0CE5DDE4F28813981F8
:10F3F0004A815B81C252D140211560EC360763E03F
:10F4000046075105E8F483E0F90140935B008093DF
:10F410005700E89507B600FCFDCFCE5DDE4F888132
:10F420009981AA81BB81C252D1409F5FAF4FBF4F2C
:10F43000CE5DDE4F88839983AA83BB83C252D140BD
:10F440008B85DE0111969201810141E01B965C9152
:10F450001B9790E0952B0C01F80120935B004093E3
:10F460005700E89511240E5F1F4F2F4F3F4F92E03A
:10F47000C91AD1081296C114D10421F01A968C91A0
:10F480001A97E4CFA5E0F10140925B00A0935700EA
:10F49000E89507B600FCFDCF81E180935700E89521
:10F4A00025C0D201C101B695A795979587955C01B6
:10F4B0004E01BBE08B0E911C00E010E00C151D0509
:10F4C00059F0F40161914F01C8018A0D9B1D0F9401
:10F4D00082FB0F5F1F4FF2CF20E030E0000F111FC3
:10F4E000221F331F020D131D241D351D1A82180102
:10F4F000290152C08A819B819827892798278C01EE
:10F500000D5F1F4F1A822431C1F4DE0111964BBEEC
:10F51000F1012791369112962C931297FD013496A2
:10F5200013963C93139722E0220E311C411C511C70
:10F5300002971296009759F72BC0FE0131969F0152
:10F54000280F391FB201A10141BD852E962EA72E8D
:10F55000BB2482BC4F5F5F4F6F4F7F4FF89AA0B5BF
:10F56000A2833196E217F30779F7AC0141505109B4
:10F5700060E070E04F5F5F4F6F4F7F4F240E351E8E
:10F58000461E571EE3E0F0E0EC0FFD1FE80FF91FE9
:10F59000108204C080EC8A8302E010E08BE10F94BB
:10F5A000B4F1862D0F94B4F1812F0F94B4F1802F14
:10F5B0000F94B4F185E1B62CB826B0268EE00F94F6
:10F5C000B4F1B126AE014F5F5F4F6A01040F151F02
:10F5D000C016D10641F0D601AD906D018A2D0F9471
:10F5E000B4F1BA24F5CF8B2D0F94B4F1639485B1A7
:10F5F000805885B900E010E0772009F477C8279893
:10F600002F9884E690E00F94C0F100008091C00034
:10F610008D7F8093C00081E180935700E895EE27AD
:10F62000FF270994FFCF8BE1B82E81E09BCDE12C21
:10F63000F12C0DC0CA5DDE4F39832883C652D140FC
:10F6400086E090CD813009F492CD08F096CD80E02F
:10F6500089CD97FB072E16F4009407D077FD09D0CB
:10F660000F9466FB07FC05D03EF4909581959F4F63
:10F670000895709561957F4F0895A1E21A2EAA1BF7
:10F68000BB1BFD010DC0AA1FBB1FEE1FFF1FA21752
:10F69000B307E407F50720F0A21BB30BE40BF50B4F
:10F6A000661F771F881F991F1A9469F760957095D8
:10F6B000809590959B01AC01BD01CF01089569270C
:10F6C000962769277827872778270895AA1BBB1BC9
:10F6D00051E107C0AA1FBB1FA617B70710F0A61B52
:10F6E000B70B881F991F5A95A9F780959095BC0173
:10F6F000CD010895F999FECF92BD81BDF89A992761
:10F7000080B50895262FF999FECF1FBA92BD81BD0D
:10F7100020BD0FB6F894FA9AF99A0FBE0196089593
:04F72000F894FFCF8B
:04F724000F020A00C6
:040000033000E000E9
:00000001FF
